{
    "_format": "hh-sol-artifact-1",
    "contractName": "NFTCollectible",
    "sourceName": "contracts/NFTCollectible.sol",
    "abi": [
        {
            "inputs": [
                {
                    "internalType": "string",
                    "name": "baseURI",
                    "type": "string"
                }
            ],
            "stateMutability": "nonpayable",
            "type": "constructor"
        },
        {
            "anonymous": false,
            "inputs": [
                {
                    "indexed": true,
                    "internalType": "address",
                    "name": "owner",
                    "type": "address"
                },
                {
                    "indexed": true,
                    "internalType": "address",
                    "name": "approved",
                    "type": "address"
                },
                {
                    "indexed": true,
                    "internalType": "uint256",
                    "name": "tokenId",
                    "type": "uint256"
                }
            ],
            "name": "Approval",
            "type": "event"
        },
        {
            "anonymous": false,
            "inputs": [
                {
                    "indexed": true,
                    "internalType": "address",
                    "name": "owner",
                    "type": "address"
                },
                {
                    "indexed": true,
                    "internalType": "address",
                    "name": "operator",
                    "type": "address"
                },
                {
                    "indexed": false,
                    "internalType": "bool",
                    "name": "approved",
                    "type": "bool"
                }
            ],
            "name": "ApprovalForAll",
            "type": "event"
        },
        {
            "anonymous": false,
            "inputs": [
                {
                    "indexed": true,
                    "internalType": "address",
                    "name": "previousOwner",
                    "type": "address"
                },
                {
                    "indexed": true,
                    "internalType": "address",
                    "name": "newOwner",
                    "type": "address"
                }
            ],
            "name": "OwnershipTransferred",
            "type": "event"
        },
        {
            "anonymous": false,
            "inputs": [
                {
                    "indexed": true,
                    "internalType": "address",
                    "name": "from",
                    "type": "address"
                },
                {
                    "indexed": true,
                    "internalType": "address",
                    "name": "to",
                    "type": "address"
                },
                {
                    "indexed": true,
                    "internalType": "uint256",
                    "name": "tokenId",
                    "type": "uint256"
                }
            ],
            "name": "Transfer",
            "type": "event"
        },
        {
            "inputs": [],
            "name": "MAX_PER_MINT",
            "outputs": [
                {
                    "internalType": "uint256",
                    "name": "",
                    "type": "uint256"
                }
            ],
            "stateMutability": "view",
            "type": "function"
        },
        {
            "inputs": [],
            "name": "MAX_SUPPLY",
            "outputs": [
                {
                    "internalType": "uint256",
                    "name": "",
                    "type": "uint256"
                }
            ],
            "stateMutability": "view",
            "type": "function"
        },
        {
            "inputs": [],
            "name": "PRICE",
            "outputs": [
                {
                    "internalType": "uint256",
                    "name": "",
                    "type": "uint256"
                }
            ],
            "stateMutability": "view",
            "type": "function"
        },
        {
            "inputs": [
                {
                    "internalType": "address",
                    "name": "to",
                    "type": "address"
                },
                {
                    "internalType": "uint256",
                    "name": "tokenId",
                    "type": "uint256"
                }
            ],
            "name": "approve",
            "outputs": [],
            "stateMutability": "nonpayable",
            "type": "function"
        },
        {
            "inputs": [
                {
                    "internalType": "address",
                    "name": "owner",
                    "type": "address"
                }
            ],
            "name": "balanceOf",
            "outputs": [
                {
                    "internalType": "uint256",
                    "name": "",
                    "type": "uint256"
                }
            ],
            "stateMutability": "view",
            "type": "function"
        },
        {
            "inputs": [],
            "name": "baseTokenURI",
            "outputs": [
                {
                    "internalType": "string",
                    "name": "",
                    "type": "string"
                }
            ],
            "stateMutability": "view",
            "type": "function"
        },
        {
            "inputs": [
                {
                    "internalType": "uint256",
                    "name": "tokenId",
                    "type": "uint256"
                }
            ],
            "name": "getApproved",
            "outputs": [
                {
                    "internalType": "address",
                    "name": "",
                    "type": "address"
                }
            ],
            "stateMutability": "view",
            "type": "function"
        },
        {
            "inputs": [
                {
                    "internalType": "address",
                    "name": "owner",
                    "type": "address"
                },
                {
                    "internalType": "address",
                    "name": "operator",
                    "type": "address"
                }
            ],
            "name": "isApprovedForAll",
            "outputs": [
                {
                    "internalType": "bool",
                    "name": "",
                    "type": "bool"
                }
            ],
            "stateMutability": "view",
            "type": "function"
        },
        {
            "inputs": [
                {
                    "internalType": "uint256",
                    "name": "_count",
                    "type": "uint256"
                }
            ],
            "name": "mintNFTs",
            "outputs": [],
            "stateMutability": "payable",
            "type": "function"
        },
        {
            "inputs": [],
            "name": "name",
            "outputs": [
                {
                    "internalType": "string",
                    "name": "",
                    "type": "string"
                }
            ],
            "stateMutability": "view",
            "type": "function"
        },
        {
            "inputs": [],
            "name": "owner",
            "outputs": [
                {
                    "internalType": "address",
                    "name": "",
                    "type": "address"
                }
            ],
            "stateMutability": "view",
            "type": "function"
        },
        {
            "inputs": [
                {
                    "internalType": "uint256",
                    "name": "tokenId",
                    "type": "uint256"
                }
            ],
            "name": "ownerOf",
            "outputs": [
                {
                    "internalType": "address",
                    "name": "",
                    "type": "address"
                }
            ],
            "stateMutability": "view",
            "type": "function"
        },
        {
            "inputs": [],
            "name": "renounceOwnership",
            "outputs": [],
            "stateMutability": "nonpayable",
            "type": "function"
        },
        {
            "inputs": [
                {
                    "internalType": "address",
                    "name": "from",
                    "type": "address"
                },
                {
                    "internalType": "address",
                    "name": "to",
                    "type": "address"
                },
                {
                    "internalType": "uint256",
                    "name": "tokenId",
                    "type": "uint256"
                }
            ],
            "name": "safeTransferFrom",
            "outputs": [],
            "stateMutability": "nonpayable",
            "type": "function"
        },
        {
            "inputs": [
                {
                    "internalType": "address",
                    "name": "from",
                    "type": "address"
                },
                {
                    "internalType": "address",
                    "name": "to",
                    "type": "address"
                },
                {
                    "internalType": "uint256",
                    "name": "tokenId",
                    "type": "uint256"
                },
                {
                    "internalType": "bytes",
                    "name": "_data",
                    "type": "bytes"
                }
            ],
            "name": "safeTransferFrom",
            "outputs": [],
            "stateMutability": "nonpayable",
            "type": "function"
        },
        {
            "inputs": [
                {
                    "internalType": "address",
                    "name": "operator",
                    "type": "address"
                },
                {
                    "internalType": "bool",
                    "name": "approved",
                    "type": "bool"
                }
            ],
            "name": "setApprovalForAll",
            "outputs": [],
            "stateMutability": "nonpayable",
            "type": "function"
        },
        {
            "inputs": [
                {
                    "internalType": "string",
                    "name": "_baseTokenURI",
                    "type": "string"
                }
            ],
            "name": "setBaseURI",
            "outputs": [],
            "stateMutability": "nonpayable",
            "type": "function"
        },
        {
            "inputs": [
                {
                    "internalType": "bytes4",
                    "name": "interfaceId",
                    "type": "bytes4"
                }
            ],
            "name": "supportsInterface",
            "outputs": [
                {
                    "internalType": "bool",
                    "name": "",
                    "type": "bool"
                }
            ],
            "stateMutability": "view",
            "type": "function"
        },
        {
            "inputs": [],
            "name": "symbol",
            "outputs": [
                {
                    "internalType": "string",
                    "name": "",
                    "type": "string"
                }
            ],
            "stateMutability": "view",
            "type": "function"
        },
        {
            "inputs": [
                {
                    "internalType": "uint256",
                    "name": "index",
                    "type": "uint256"
                }
            ],
            "name": "tokenByIndex",
            "outputs": [
                {
                    "internalType": "uint256",
                    "name": "",
                    "type": "uint256"
                }
            ],
            "stateMutability": "view",
            "type": "function"
        },
        {
            "inputs": [
                {
                    "internalType": "address",
                    "name": "owner",
                    "type": "address"
                },
                {
                    "internalType": "uint256",
                    "name": "index",
                    "type": "uint256"
                }
            ],
            "name": "tokenOfOwnerByIndex",
            "outputs": [
                {
                    "internalType": "uint256",
                    "name": "",
                    "type": "uint256"
                }
            ],
            "stateMutability": "view",
            "type": "function"
        },
        {
            "inputs": [
                {
                    "internalType": "uint256",
                    "name": "tokenId",
                    "type": "uint256"
                }
            ],
            "name": "tokenURI",
            "outputs": [
                {
                    "internalType": "string",
                    "name": "",
                    "type": "string"
                }
            ],
            "stateMutability": "view",
            "type": "function"
        },
        {
            "inputs": [
                {
                    "internalType": "address",
                    "name": "_owner",
                    "type": "address"
                }
            ],
            "name": "tokensOfOwner",
            "outputs": [
                {
                    "internalType": "uint256[]",
                    "name": "",
                    "type": "uint256[]"
                }
            ],
            "stateMutability": "view",
            "type": "function"
        },
        {
            "inputs": [],
            "name": "totalSupply",
            "outputs": [
                {
                    "internalType": "uint256",
                    "name": "",
                    "type": "uint256"
                }
            ],
            "stateMutability": "view",
            "type": "function"
        },
        {
            "inputs": [
                {
                    "internalType": "address",
                    "name": "from",
                    "type": "address"
                },
                {
                    "internalType": "address",
                    "name": "to",
                    "type": "address"
                },
                {
                    "internalType": "uint256",
                    "name": "tokenId",
                    "type": "uint256"
                }
            ],
            "name": "transferFrom",
            "outputs": [],
            "stateMutability": "nonpayable",
            "type": "function"
        },
        {
            "inputs": [
                {
                    "internalType": "address",
                    "name": "newOwner",
                    "type": "address"
                }
            ],
            "name": "transferOwnership",
            "outputs": [],
            "stateMutability": "nonpayable",
            "type": "function"
        },
        {
            "inputs": [],
            "name": "withdraw",
            "outputs": [],
            "stateMutability": "payable",
            "type": "function"
        }
    ],
    "bytecode": "0x60806040523480156200001157600080fd5b50604051620046b8380380620046b88339818101604052810190620000379190620003d4565b6040518060400160405280600b81526020017f424f4f4b2d3432302d47310000000000000000000000000000000000000000008152506040518060400160405280600581526020017f424f4f4b5a0000000000000000000000000000000000000000000000000000008152508160009080519060200190620000bb929190620002b2565b508060019080519060200190620000d4929190620002b2565b505050620000f7620000eb6200010f60201b60201c565b6200011760201b60201c565b6200010881620001dd60201b60201c565b506200060c565b600033905090565b6000600a60009054906101000a900473ffffffffffffffffffffffffffffffffffffffff16905081600a60006101000a81548173ffffffffffffffffffffffffffffffffffffffff021916908373ffffffffffffffffffffffffffffffffffffffff1602179055508173ffffffffffffffffffffffffffffffffffffffff168173ffffffffffffffffffffffffffffffffffffffff167f8be0079c531659141344cd1fd0a4f28419497f9722a3daafe3b4186f6b6457e060405160405180910390a35050565b620001ed6200010f60201b60201c565b73ffffffffffffffffffffffffffffffffffffffff16620002136200028860201b60201c565b73ffffffffffffffffffffffffffffffffffffffff16146200026c576040517f08c379a0000000000000000000000000000000000000000000000000000000008152600401620002639062000440565b60405180910390fd5b80600c908051906020019062000284929190620002b2565b5050565b6000600a60009054906101000a900473ffffffffffffffffffffffffffffffffffffffff16905090565b828054620002c09062000508565b90600052602060002090601f016020900481019282620002e4576000855562000330565b82601f10620002ff57805160ff191683800117855562000330565b8280016001018555821562000330579182015b828111156200032f57825182559160200191906001019062000312565b5b5090506200033f919062000343565b5090565b5b808211156200035e57600081600090555060010162000344565b5090565b60006200037962000373846200048b565b62000462565b9050828152602081018484840111156200039257600080fd5b6200039f848285620004d2565b509392505050565b600082601f830112620003b957600080fd5b8151620003cb84826020860162000362565b91505092915050565b600060208284031215620003e757600080fd5b600082015167ffffffffffffffff8111156200040257600080fd5b6200041084828501620003a7565b91505092915050565b600062000428602083620004c1565b91506200043582620005e3565b602082019050919050565b600060208201905081810360008301526200045b8162000419565b9050919050565b60006200046e62000481565b90506200047c82826200053e565b919050565b6000604051905090565b600067ffffffffffffffff821115620004a957620004a8620005a3565b5b620004b482620005d2565b9050602081019050919050565b600082825260208201905092915050565b60005b83811015620004f2578082015181840152602081019050620004d5565b8381111562000502576000848401525b50505050565b600060028204905060018216806200052157607f821691505b6020821081141562000538576200053762000574565b5b50919050565b6200054982620005d2565b810181811067ffffffffffffffff821117156200056b576200056a620005a3565b5b80604052505050565b7f4e487b7100000000000000000000000000000000000000000000000000000000600052602260045260246000fd5b7f4e487b7100000000000000000000000000000000000000000000000000000000600052604160045260246000fd5b6000601f19601f8301169050919050565b7f4f776e61626c653a2063616c6c6572206973206e6f7420746865206f776e6572600082015250565b61409c806200061c6000396000f3fe60806040526004361061019c5760003560e01c806355f804b3116100ec57806395d89b411161008a578063c87b56dd11610064578063c87b56dd146105ac578063d547cfb7146105e9578063e985e9c514610614578063f2fde38b146106515761019c565b806395d89b411461052f578063a22cb4651461055a578063b88d4fde146105835761019c565b8063715018a6116100c6578063715018a6146104855780638462151c1461049c5780638d859f3e146104d95780638da5cb5b146105045761019c565b806355f804b3146103e25780636352211e1461040b57806370a08231146104485761019c565b806323b872dd116101595780633b4b1381116101335780633b4b1381146103565780633ccfd60b1461037257806342842e0e1461037c5780634f6ccce7146103a55761019c565b806323b872dd146102c55780632f745c59146102ee57806332cb6b0c1461032b5761019c565b806301ffc9a7146101a157806306fdde03146101de578063081812fc14610209578063095ea7b31461024657806309d42b301461026f57806318160ddd1461029a575b600080fd5b3480156101ad57600080fd5b506101c860048036038101906101c39190612c22565b61067a565b6040516101d5919061323d565b60405180910390f35b3480156101ea57600080fd5b506101f36106f4565b6040516102009190613258565b60405180910390f35b34801561021557600080fd5b50610230600480360381019061022b9190612cb5565b610786565b60405161023d91906131b4565b60405180910390f35b34801561025257600080fd5b5061026d60048036038101906102689190612be6565b61080b565b005b34801561027b57600080fd5b50610284610923565b604051610291919061355a565b60405180910390f35b3480156102a657600080fd5b506102af610928565b6040516102bc919061355a565b60405180910390f35b3480156102d157600080fd5b506102ec60048036038101906102e79190612ae0565b610935565b005b3480156102fa57600080fd5b5061031560048036038101906103109190612be6565b610995565b604051610322919061355a565b60405180910390f35b34801561033757600080fd5b50610340610a3a565b60405161034d919061355a565b60405180910390f35b610370600480360381019061036b9190612cb5565b610a3f565b005b61037a610b7a565b005b34801561038857600080fd5b506103a3600480360381019061039e9190612ae0565b610cee565b005b3480156103b157600080fd5b506103cc60048036038101906103c79190612cb5565b610d0e565b6040516103d9919061355a565b60405180910390f35b3480156103ee57600080fd5b5061040960048036038101906104049190612c74565b610da5565b005b34801561041757600080fd5b50610432600480360381019061042d9190612cb5565b610e3b565b60405161043f91906131b4565b60405180910390f35b34801561045457600080fd5b5061046f600480360381019061046a9190612a7b565b610eed565b60405161047c919061355a565b60405180910390f35b34801561049157600080fd5b5061049a610fa5565b005b3480156104a857600080fd5b506104c360048036038101906104be9190612a7b565b61102d565b6040516104d0919061321b565b60405180910390f35b3480156104e557600080fd5b506104ee611127565b6040516104fb919061355a565b60405180910390f35b34801561051057600080fd5b50610519611132565b60405161052691906131b4565b60405180910390f35b34801561053b57600080fd5b5061054461115c565b6040516105519190613258565b60405180910390f35b34801561056657600080fd5b50610581600480360381019061057c9190612baa565b6111ee565b005b34801561058f57600080fd5b506105aa60048036038101906105a59190612b2f565b611204565b005b3480156105b857600080fd5b506105d360048036038101906105ce9190612cb5565b611266565b6040516105e09190613258565b60405180910390f35b3480156105f557600080fd5b506105fe61130d565b60405161060b9190613258565b60405180910390f35b34801561062057600080fd5b5061063b60048036038101906106369190612aa4565b61139b565b604051610648919061323d565b60405180910390f35b34801561065d57600080fd5b5061067860048036038101906106739190612a7b565b61142f565b005b60007f780e9d63000000000000000000000000000000000000000000000000000000007bffffffffffffffffffffffffffffffffffffffffffffffffffffffff1916827bffffffffffffffffffffffffffffffffffffffffffffffffffffffff191614806106ed57506106ec82611527565b5b9050919050565b6060600080546107039061384e565b80601f016020809104026020016040519081016040528092919081815260200182805461072f9061384e565b801561077c5780601f106107515761010080835404028352916020019161077c565b820191906000526020600020905b81548152906001019060200180831161075f57829003601f168201915b5050505050905090565b600061079182611609565b6107d0576040517f08c379a00000000000000000000000000000000000000000000000000000000081526004016107c79061345a565b60405180910390fd5b6004600083815260200190815260200160002060009054906101000a900473ffffffffffffffffffffffffffffffffffffffff169050919050565b600061081682610e3b565b90508073ffffffffffffffffffffffffffffffffffffffff168373ffffffffffffffffffffffffffffffffffffffff161415610887576040517f08c379a000000000000000000000000000000000000000000000000000000000815260040161087e906134da565b60405180910390fd5b8073ffffffffffffffffffffffffffffffffffffffff166108a6611675565b73ffffffffffffffffffffffffffffffffffffffff1614806108d557506108d4816108cf611675565b61139b565b5b610914576040517f08c379a000000000000000000000000000000000000000000000000000000000815260040161090b906133ba565b60405180910390fd5b61091e838361167d565b505050565b600181565b6000600880549050905090565b610946610940611675565b82611736565b610985576040517f08c379a000000000000000000000000000000000000000000000000000000000815260040161097c9061351a565b60405180910390fd5b610990838383611814565b505050565b60006109a083610eed565b82106109e1576040517f08c379a00000000000000000000000000000000000000000000000000000000081526004016109d89061327a565b60405180910390fd5b600660008473ffffffffffffffffffffffffffffffffffffffff1673ffffffffffffffffffffffffffffffffffffffff168152602001908152602001600020600083815260200190815260200160002054905092915050565b600381565b6000610a4b600b611a70565b90506003610a628383611a7e90919063ffffffff16565b1115610aa3576040517f08c379a0000000000000000000000000000000000000000000000000000000008152600401610a9a9061335a565b60405180910390fd5b600082118015610ab4575060018211155b610af3576040517f08c379a0000000000000000000000000000000000000000000000000000000008152600401610aea9061337a565b60405180910390fd5b610b0d82662386f26fc10000611a9490919063ffffffff16565b341015610b4f576040517f08c379a0000000000000000000000000000000000000000000000000000000008152600401610b469061333a565b60405180910390fd5b60005b82811015610b7557610b62611aaa565b8080610b6d906138b1565b915050610b52565b505050565b610b82611675565b73ffffffffffffffffffffffffffffffffffffffff16610ba0611132565b73ffffffffffffffffffffffffffffffffffffffff1614610bf6576040517f08c379a0000000000000000000000000000000000000000000000000000000008152600401610bed9061347a565b60405180910390fd5b600047905060008111610c3e576040517f08c379a0000000000000000000000000000000000000000000000000000000008152600401610c359061343a565b60405180910390fd5b60003373ffffffffffffffffffffffffffffffffffffffff1682604051610c649061319f565b60006040518083038185875af1925050503d8060008114610ca1576040519150601f19603f3d011682016040523d82523d6000602084013e610ca6565b606091505b5050905080610cea576040517f08c379a0000000000000000000000000000000000000000000000000000000008152600401610ce1906134fa565b60405180910390fd5b5050565b610d0983838360405180602001604052806000815250611204565b505050565b6000610d18610928565b8210610d59576040517f08c379a0000000000000000000000000000000000000000000000000000000008152600401610d509061353a565b60405180910390fd5b60088281548110610d93577f4e487b7100000000000000000000000000000000000000000000000000000000600052603260045260246000fd5b90600052602060002001549050919050565b610dad611675565b73ffffffffffffffffffffffffffffffffffffffff16610dcb611132565b73ffffffffffffffffffffffffffffffffffffffff1614610e21576040517f08c379a0000000000000000000000000000000000000000000000000000000008152600401610e189061347a565b60405180910390fd5b80600c9080519060200190610e3792919061289f565b5050565b6000806002600084815260200190815260200160002060009054906101000a900473ffffffffffffffffffffffffffffffffffffffff169050600073ffffffffffffffffffffffffffffffffffffffff168173ffffffffffffffffffffffffffffffffffffffff161415610ee4576040517f08c379a0000000000000000000000000000000000000000000000000000000008152600401610edb906133fa565b60405180910390fd5b80915050919050565b60008073ffffffffffffffffffffffffffffffffffffffff168273ffffffffffffffffffffffffffffffffffffffff161415610f5e576040517f08c379a0000000000000000000000000000000000000000000000000000000008152600401610f55906133da565b60405180910390fd5b600360008373ffffffffffffffffffffffffffffffffffffffff1673ffffffffffffffffffffffffffffffffffffffff168152602001908152602001600020549050919050565b610fad611675565b73ffffffffffffffffffffffffffffffffffffffff16610fcb611132565b73ffffffffffffffffffffffffffffffffffffffff1614611021576040517f08c379a00000000000000000000000000000000000000000000000000000000081526004016110189061347a565b60405180910390fd5b61102b6000611acf565b565b6060600061103a83610eed565b905060008167ffffffffffffffff81111561107e577f4e487b7100000000000000000000000000000000000000000000000000000000600052604160045260246000fd5b6040519080825280602002602001820160405280156110ac5781602001602082028036833780820191505090505b50905060005b8281101561111c576110c48582610995565b8282815181106110fd577f4e487b7100000000000000000000000000000000000000000000000000000000600052603260045260246000fd5b6020026020010181815250508080611114906138b1565b9150506110b2565b508092505050919050565b662386f26fc1000081565b6000600a60009054906101000a900473ffffffffffffffffffffffffffffffffffffffff16905090565b60606001805461116b9061384e565b80601f01602080910402602001604051908101604052809291908181526020018280546111979061384e565b80156111e45780601f106111b9576101008083540402835291602001916111e4565b820191906000526020600020905b8154815290600101906020018083116111c757829003601f168201915b5050505050905090565b6112006111f9611675565b8383611b95565b5050565b61121561120f611675565b83611736565b611254576040517f08c379a000000000000000000000000000000000000000000000000000000000815260040161124b9061351a565b60405180910390fd5b61126084848484611d02565b50505050565b606061127182611609565b6112b0576040517f08c379a00000000000000000000000000000000000000000000000000000000081526004016112a7906134ba565b60405180910390fd5b60006112ba611d5e565b905060008151116112da5760405180602001604052806000815250611305565b806112e484611df0565b6040516020016112f592919061317b565b6040516020818303038152906040525b915050919050565b600c805461131a9061384e565b80601f01602080910402602001604051908101604052809291908181526020018280546113469061384e565b80156113935780601f1061136857610100808354040283529160200191611393565b820191906000526020600020905b81548152906001019060200180831161137657829003601f168201915b505050505081565b6000600560008473ffffffffffffffffffffffffffffffffffffffff1673ffffffffffffffffffffffffffffffffffffffff16815260200190815260200160002060008373ffffffffffffffffffffffffffffffffffffffff1673ffffffffffffffffffffffffffffffffffffffff16815260200190815260200160002060009054906101000a900460ff16905092915050565b611437611675565b73ffffffffffffffffffffffffffffffffffffffff16611455611132565b73ffffffffffffffffffffffffffffffffffffffff16146114ab576040517f08c379a00000000000000000000000000000000000000000000000000000000081526004016114a29061347a565b60405180910390fd5b600073ffffffffffffffffffffffffffffffffffffffff168173ffffffffffffffffffffffffffffffffffffffff16141561151b576040517f08c379a0000000000000000000000000000000000000000000000000000000008152600401611512906132ba565b60405180910390fd5b61152481611acf565b50565b60007f80ac58cd000000000000000000000000000000000000000000000000000000007bffffffffffffffffffffffffffffffffffffffffffffffffffffffff1916827bffffffffffffffffffffffffffffffffffffffffffffffffffffffff191614806115f257507f5b5e139f000000000000000000000000000000000000000000000000000000007bffffffffffffffffffffffffffffffffffffffffffffffffffffffff1916827bffffffffffffffffffffffffffffffffffffffffffffffffffffffff1916145b80611602575061160182611f9d565b5b9050919050565b60008073ffffffffffffffffffffffffffffffffffffffff166002600084815260200190815260200160002060009054906101000a900473ffffffffffffffffffffffffffffffffffffffff1673ffffffffffffffffffffffffffffffffffffffff1614159050919050565b600033905090565b816004600083815260200190815260200160002060006101000a81548173ffffffffffffffffffffffffffffffffffffffff021916908373ffffffffffffffffffffffffffffffffffffffff160217905550808273ffffffffffffffffffffffffffffffffffffffff166116f083610e3b565b73ffffffffffffffffffffffffffffffffffffffff167f8c5be1e5ebec7d5bd14f71427d1e84f3dd0314c0f7b2291e5b200ac8c7c3b92560405160405180910390a45050565b600061174182611609565b611780576040517f08c379a00000000000000000000000000000000000000000000000000000000081526004016117779061339a565b60405180910390fd5b600061178b83610e3b565b90508073ffffffffffffffffffffffffffffffffffffffff168473ffffffffffffffffffffffffffffffffffffffff1614806117fa57508373ffffffffffffffffffffffffffffffffffffffff166117e284610786565b73ffffffffffffffffffffffffffffffffffffffff16145b8061180b575061180a818561139b565b5b91505092915050565b8273ffffffffffffffffffffffffffffffffffffffff1661183482610e3b565b73ffffffffffffffffffffffffffffffffffffffff161461188a576040517f08c379a00000000000000000000000000000000000000000000000000000000081526004016118819061349a565b60405180910390fd5b600073ffffffffffffffffffffffffffffffffffffffff168273ffffffffffffffffffffffffffffffffffffffff1614156118fa576040517f08c379a00000000000000000000000000000000000000000000000000000000081526004016118f1906132fa565b60405180910390fd5b611905838383612007565b61191060008261167d565b6001600360008573ffffffffffffffffffffffffffffffffffffffff1673ffffffffffffffffffffffffffffffffffffffff16815260200190815260200160002060008282546119609190613764565b925050819055506001600360008473ffffffffffffffffffffffffffffffffffffffff1673ffffffffffffffffffffffffffffffffffffffff16815260200190815260200160002060008282546119b79190613683565b92505081905550816002600083815260200190815260200160002060006101000a81548173ffffffffffffffffffffffffffffffffffffffff021916908373ffffffffffffffffffffffffffffffffffffffff160217905550808273ffffffffffffffffffffffffffffffffffffffff168473ffffffffffffffffffffffffffffffffffffffff167fddf252ad1be2c89b69c2b068fc378daa952ba7f163c4a11628f55a4df523b3ef60405160405180910390a4505050565b600081600001549050919050565b60008183611a8c9190613683565b905092915050565b60008183611aa2919061370a565b905092915050565b6000611ab6600b611a70565b9050611ac2338261211b565b611acc600b612139565b50565b6000600a60009054906101000a900473ffffffffffffffffffffffffffffffffffffffff16905081600a60006101000a81548173ffffffffffffffffffffffffffffffffffffffff021916908373ffffffffffffffffffffffffffffffffffffffff1602179055508173ffffffffffffffffffffffffffffffffffffffff168173ffffffffffffffffffffffffffffffffffffffff167f8be0079c531659141344cd1fd0a4f28419497f9722a3daafe3b4186f6b6457e060405160405180910390a35050565b8173ffffffffffffffffffffffffffffffffffffffff168373ffffffffffffffffffffffffffffffffffffffff161415611c04576040517f08c379a0000000000000000000000000000000000000000000000000000000008152600401611bfb9061331a565b60405180910390fd5b80600560008573ffffffffffffffffffffffffffffffffffffffff1673ffffffffffffffffffffffffffffffffffffffff16815260200190815260200160002060008473ffffffffffffffffffffffffffffffffffffffff1673ffffffffffffffffffffffffffffffffffffffff16815260200190815260200160002060006101000a81548160ff0219169083151502179055508173ffffffffffffffffffffffffffffffffffffffff168373ffffffffffffffffffffffffffffffffffffffff167f17307eab39ab6107e8899845ad3d59bd9653f200f220920489ca2b5937696c3183604051611cf5919061323d565b60405180910390a3505050565b611d0d848484611814565b611d198484848461214f565b611d58576040517f08c379a0000000000000000000000000000000000000000000000000000000008152600401611d4f9061329a565b60405180910390fd5b50505050565b6060600c8054611d6d9061384e565b80601f0160208091040260200160405190810160405280929190818152602001828054611d999061384e565b8015611de65780601f10611dbb57610100808354040283529160200191611de6565b820191906000526020600020905b815481529060010190602001808311611dc957829003601f168201915b5050505050905090565b60606000821415611e38576040518060400160405280600181526020017f30000000000000000000000000000000000000000000000000000000000000008152509050611f98565b600082905060005b60008214611e6a578080611e53906138b1565b915050600a82611e6391906136d9565b9150611e40565b60008167ffffffffffffffff811115611eac577f4e487b7100000000000000000000000000000000000000000000000000000000600052604160045260246000fd5b6040519080825280601f01601f191660200182016040528015611ede5781602001600182028036833780820191505090505b5090505b60008514611f9157600182611ef79190613764565b9150600a85611f0691906138fa565b6030611f129190613683565b60f81b818381518110611f4e577f4e487b7100000000000000000000000000000000000000000000000000000000600052603260045260246000fd5b60200101907effffffffffffffffffffffffffffffffffffffffffffffffffffffffffffff1916908160001a905350600a85611f8a91906136d9565b9450611ee2565b8093505050505b919050565b60007f01ffc9a7000000000000000000000000000000000000000000000000000000007bffffffffffffffffffffffffffffffffffffffffffffffffffffffff1916827bffffffffffffffffffffffffffffffffffffffffffffffffffffffff1916149050919050565b6120128383836122e6565b600073ffffffffffffffffffffffffffffffffffffffff168373ffffffffffffffffffffffffffffffffffffffff16141561205557612050816122eb565b612094565b8173ffffffffffffffffffffffffffffffffffffffff168373ffffffffffffffffffffffffffffffffffffffff1614612093576120928382612334565b5b5b600073ffffffffffffffffffffffffffffffffffffffff168273ffffffffffffffffffffffffffffffffffffffff1614156120d7576120d2816124a1565b612116565b8273ffffffffffffffffffffffffffffffffffffffff168273ffffffffffffffffffffffffffffffffffffffff16146121155761211482826125e4565b5b5b505050565b612135828260405180602001604052806000815250612663565b5050565b6001816000016000828254019250508190555050565b60006121708473ffffffffffffffffffffffffffffffffffffffff166126be565b156122d9578373ffffffffffffffffffffffffffffffffffffffff1663150b7a02612199611675565b8786866040518563ffffffff1660e01b81526004016121bb94939291906131cf565b602060405180830381600087803b1580156121d557600080fd5b505af192505050801561220657506040513d601f19601f820116820180604052508101906122039190612c4b565b60015b612289573d8060008114612236576040519150601f19603f3d011682016040523d82523d6000602084013e61223b565b606091505b50600081511415612281576040517f08c379a00000000000000000000000000000000000000000000000000000000081526004016122789061329a565b60405180910390fd5b805181602001fd5b63150b7a0260e01b7bffffffffffffffffffffffffffffffffffffffffffffffffffffffff1916817bffffffffffffffffffffffffffffffffffffffffffffffffffffffff1916149150506122de565b600190505b949350505050565b505050565b6008805490506009600083815260200190815260200160002081905550600881908060018154018082558091505060019003906000526020600020016000909190919091505550565b6000600161234184610eed565b61234b9190613764565b9050600060076000848152602001908152602001600020549050818114612430576000600660008673ffffffffffffffffffffffffffffffffffffffff1673ffffffffffffffffffffffffffffffffffffffff168152602001908152602001600020600084815260200190815260200160002054905080600660008773ffffffffffffffffffffffffffffffffffffffff1673ffffffffffffffffffffffffffffffffffffffff168152602001908152602001600020600084815260200190815260200160002081905550816007600083815260200190815260200160002081905550505b6007600084815260200190815260200160002060009055600660008573ffffffffffffffffffffffffffffffffffffffff1673ffffffffffffffffffffffffffffffffffffffff16815260200190815260200160002060008381526020019081526020016000206000905550505050565b600060016008805490506124b59190613764565b905060006009600084815260200190815260200160002054905060006008838154811061250b577f4e487b7100000000000000000000000000000000000000000000000000000000600052603260045260246000fd5b906000526020600020015490508060088381548110612553577f4e487b7100000000000000000000000000000000000000000000000000000000600052603260045260246000fd5b9060005260206000200181905550816009600083815260200190815260200160002081905550600960008581526020019081526020016000206000905560088054806125c8577f4e487b7100000000000000000000000000000000000000000000000000000000600052603160045260246000fd5b6001900381819060005260206000200160009055905550505050565b60006125ef83610eed565b905081600660008573ffffffffffffffffffffffffffffffffffffffff1673ffffffffffffffffffffffffffffffffffffffff168152602001908152602001600020600083815260200190815260200160002081905550806007600084815260200190815260200160002081905550505050565b61266d83836126d1565b61267a600084848461214f565b6126b9576040517f08c379a00000000000000000000000000000000000000000000000000000000081526004016126b09061329a565b60405180910390fd5b505050565b600080823b905060008111915050919050565b600073ffffffffffffffffffffffffffffffffffffffff168273ffffffffffffffffffffffffffffffffffffffff161415612741576040517f08c379a00000000000000000000000000000000000000000000000000000000081526004016127389061341a565b60405180910390fd5b61274a81611609565b1561278a576040517f08c379a0000000000000000000000000000000000000000000000000000000008152600401612781906132da565b60405180910390fd5b61279660008383612007565b6001600360008473ffffffffffffffffffffffffffffffffffffffff1673ffffffffffffffffffffffffffffffffffffffff16815260200190815260200160002060008282546127e69190613683565b92505081905550816002600083815260200190815260200160002060006101000a81548173ffffffffffffffffffffffffffffffffffffffff021916908373ffffffffffffffffffffffffffffffffffffffff160217905550808273ffffffffffffffffffffffffffffffffffffffff16600073ffffffffffffffffffffffffffffffffffffffff167fddf252ad1be2c89b69c2b068fc378daa952ba7f163c4a11628f55a4df523b3ef60405160405180910390a45050565b8280546128ab9061384e565b90600052602060002090601f0160209004810192826128cd5760008555612914565b82601f106128e657805160ff1916838001178555612914565b82800160010185558215612914579182015b828111156129135782518255916020019190600101906128f8565b5b5090506129219190612925565b5090565b5b8082111561293e576000816000905550600101612926565b5090565b60006129556129508461359a565b613575565b90508281526020810184848401111561296d57600080fd5b61297884828561380c565b509392505050565b600061299361298e846135cb565b613575565b9050828152602081018484840111156129ab57600080fd5b6129b684828561380c565b509392505050565b6000813590506129cd8161400a565b92915050565b6000813590506129e281614021565b92915050565b6000813590506129f781614038565b92915050565b600081519050612a0c81614038565b92915050565b600082601f830112612a2357600080fd5b8135612a33848260208601612942565b91505092915050565b600082601f830112612a4d57600080fd5b8135612a5d848260208601612980565b91505092915050565b600081359050612a758161404f565b92915050565b600060208284031215612a8d57600080fd5b6000612a9b848285016129be565b91505092915050565b60008060408385031215612ab757600080fd5b6000612ac5858286016129be565b9250506020612ad6858286016129be565b9150509250929050565b600080600060608486031215612af557600080fd5b6000612b03868287016129be565b9350506020612b14868287016129be565b9250506040612b2586828701612a66565b9150509250925092565b60008060008060808587031215612b4557600080fd5b6000612b53878288016129be565b9450506020612b64878288016129be565b9350506040612b7587828801612a66565b925050606085013567ffffffffffffffff811115612b9257600080fd5b612b9e87828801612a12565b91505092959194509250565b60008060408385031215612bbd57600080fd5b6000612bcb858286016129be565b9250506020612bdc858286016129d3565b9150509250929050565b60008060408385031215612bf957600080fd5b6000612c07858286016129be565b9250506020612c1885828601612a66565b9150509250929050565b600060208284031215612c3457600080fd5b6000612c42848285016129e8565b91505092915050565b600060208284031215612c5d57600080fd5b6000612c6b848285016129fd565b91505092915050565b600060208284031215612c8657600080fd5b600082013567ffffffffffffffff811115612ca057600080fd5b612cac84828501612a3c565b91505092915050565b600060208284031215612cc757600080fd5b6000612cd584828501612a66565b91505092915050565b6000612cea838361315d565b60208301905092915050565b612cff81613798565b82525050565b6000612d108261360c565b612d1a818561363a565b9350612d25836135fc565b8060005b83811015612d56578151612d3d8882612cde565b9750612d488361362d565b925050600181019050612d29565b5085935050505092915050565b612d6c816137aa565b82525050565b6000612d7d82613617565b612d87818561364b565b9350612d9781856020860161381b565b612da0816139e7565b840191505092915050565b6000612db682613622565b612dc08185613667565b9350612dd081856020860161381b565b612dd9816139e7565b840191505092915050565b6000612def82613622565b612df98185613678565b9350612e0981856020860161381b565b80840191505092915050565b6000612e22602b83613667565b9150612e2d826139f8565b604082019050919050565b6000612e45603283613667565b9150612e5082613a47565b604082019050919050565b6000612e68602683613667565b9150612e7382613a96565b604082019050919050565b6000612e8b601c83613667565b9150612e9682613ae5565b602082019050919050565b6000612eae602483613667565b9150612eb982613b0e565b604082019050919050565b6000612ed1601983613667565b9150612edc82613b5d565b602082019050919050565b6000612ef4602283613667565b9150612eff82613b86565b604082019050919050565b6000612f17601583613667565b9150612f2282613bd5565b602082019050919050565b6000612f3a602583613667565b9150612f4582613bfe565b604082019050919050565b6000612f5d602c83613667565b9150612f6882613c4d565b604082019050919050565b6000612f80603883613667565b9150612f8b82613c9c565b604082019050919050565b6000612fa3602a83613667565b9150612fae82613ceb565b604082019050919050565b6000612fc6602983613667565b9150612fd182613d3a565b604082019050919050565b6000612fe9602083613667565b9150612ff482613d89565b602082019050919050565b600061300c601983613667565b915061301782613db2565b602082019050919050565b600061302f602c83613667565b915061303a82613ddb565b604082019050919050565b6000613052602083613667565b915061305d82613e2a565b602082019050919050565b6000613075602983613667565b915061308082613e53565b604082019050919050565b6000613098602f83613667565b91506130a382613ea2565b604082019050919050565b60006130bb602183613667565b91506130c682613ef1565b604082019050919050565b60006130de60008361365c565b91506130e982613f40565b600082019050919050565b6000613101601083613667565b915061310c82613f43565b602082019050919050565b6000613124603183613667565b915061312f82613f6c565b604082019050919050565b6000613147602c83613667565b915061315282613fbb565b604082019050919050565b61316681613802565b82525050565b61317581613802565b82525050565b60006131878285612de4565b91506131938284612de4565b91508190509392505050565b60006131aa826130d1565b9150819050919050565b60006020820190506131c96000830184612cf6565b92915050565b60006080820190506131e46000830187612cf6565b6131f16020830186612cf6565b6131fe604083018561316c565b81810360608301526132108184612d72565b905095945050505050565b600060208201905081810360008301526132358184612d05565b905092915050565b60006020820190506132526000830184612d63565b92915050565b600060208201905081810360008301526132728184612dab565b905092915050565b6000602082019050818103600083015261329381612e15565b9050919050565b600060208201905081810360008301526132b381612e38565b9050919050565b600060208201905081810360008301526132d381612e5b565b9050919050565b600060208201905081810360008301526132f381612e7e565b9050919050565b6000602082019050818103600083015261331381612ea1565b9050919050565b6000602082019050818103600083015261333381612ec4565b9050919050565b6000602082019050818103600083015261335381612ee7565b9050919050565b6000602082019050818103600083015261337381612f0a565b9050919050565b6000602082019050818103600083015261339381612f2d565b9050919050565b600060208201905081810360008301526133b381612f50565b9050919050565b600060208201905081810360008301526133d381612f73565b9050919050565b600060208201905081810360008301526133f381612f96565b9050919050565b6000602082019050818103600083015261341381612fb9565b9050919050565b6000602082019050818103600083015261343381612fdc565b9050919050565b6000602082019050818103600083015261345381612fff565b9050919050565b6000602082019050818103600083015261347381613022565b9050919050565b6000602082019050818103600083015261349381613045565b9050919050565b600060208201905081810360008301526134b381613068565b9050919050565b600060208201905081810360008301526134d38161308b565b9050919050565b600060208201905081810360008301526134f3816130ae565b9050919050565b60006020820190508181036000830152613513816130f4565b9050919050565b6000602082019050818103600083015261353381613117565b9050919050565b600060208201905081810360008301526135538161313a565b9050919050565b600060208201905061356f600083018461316c565b92915050565b600061357f613590565b905061358b8282613880565b919050565b6000604051905090565b600067ffffffffffffffff8211156135b5576135b46139b8565b5b6135be826139e7565b9050602081019050919050565b600067ffffffffffffffff8211156135e6576135e56139b8565b5b6135ef826139e7565b9050602081019050919050565b6000819050602082019050919050565b600081519050919050565b600081519050919050565b600081519050919050565b6000602082019050919050565b600082825260208201905092915050565b600082825260208201905092915050565b600081905092915050565b600082825260208201905092915050565b600081905092915050565b600061368e82613802565b915061369983613802565b9250827fffffffffffffffffffffffffffffffffffffffffffffffffffffffffffffffff038211156136ce576136cd61392b565b5b828201905092915050565b60006136e482613802565b91506136ef83613802565b9250826136ff576136fe61395a565b5b828204905092915050565b600061371582613802565b915061372083613802565b9250817fffffffffffffffffffffffffffffffffffffffffffffffffffffffffffffffff04831182151516156137595761375861392b565b5b828202905092915050565b600061376f82613802565b915061377a83613802565b92508282101561378d5761378c61392b565b5b828203905092915050565b60006137a3826137e2565b9050919050565b60008115159050919050565b60007fffffffff0000000000000000000000000000000000000000000000000000000082169050919050565b600073ffffffffffffffffffffffffffffffffffffffff82169050919050565b6000819050919050565b82818337600083830152505050565b60005b8381101561383957808201518184015260208101905061381e565b83811115613848576000848401525b50505050565b6000600282049050600182168061386657607f821691505b6020821081141561387a57613879613989565b5b50919050565b613889826139e7565b810181811067ffffffffffffffff821117156138a8576138a76139b8565b5b80604052505050565b60006138bc82613802565b91507fffffffffffffffffffffffffffffffffffffffffffffffffffffffffffffffff8214156138ef576138ee61392b565b5b600182019050919050565b600061390582613802565b915061391083613802565b9250826139205761391f61395a565b5b828206905092915050565b7f4e487b7100000000000000000000000000000000000000000000000000000000600052601160045260246000fd5b7f4e487b7100000000000000000000000000000000000000000000000000000000600052601260045260246000fd5b7f4e487b7100000000000000000000000000000000000000000000000000000000600052602260045260246000fd5b7f4e487b7100000000000000000000000000000000000000000000000000000000600052604160045260246000fd5b6000601f19601f8301169050919050565b7f455243373231456e756d657261626c653a206f776e657220696e646578206f7560008201527f74206f6620626f756e6473000000000000000000000000000000000000000000602082015250565b7f4552433732313a207472616e7366657220746f206e6f6e20455243373231526560008201527f63656976657220696d706c656d656e7465720000000000000000000000000000602082015250565b7f4f776e61626c653a206e6577206f776e657220697320746865207a65726f206160008201527f6464726573730000000000000000000000000000000000000000000000000000602082015250565b7f4552433732313a20746f6b656e20616c7265616479206d696e74656400000000600082015250565b7f4552433732313a207472616e7366657220746f20746865207a65726f2061646460008201527f7265737300000000000000000000000000000000000000000000000000000000602082015250565b7f4552433732313a20617070726f766520746f2063616c6c657200000000000000600082015250565b7f4e6f7420656e6f75676820657468657220746f207075726368617365204e465460008201527f732e000000000000000000000000000000000000000000000000000000000000602082015250565b7f4e6f7420656e6f756768204e465473206c656674210000000000000000000000600082015250565b7f43616e6e6f74206d696e7420737065636966696564206e756d626572206f662060008201527f4e4654732e000000000000000000000000000000000000000000000000000000602082015250565b7f4552433732313a206f70657261746f7220717565727920666f72206e6f6e657860008201527f697374656e7420746f6b656e0000000000000000000000000000000000000000602082015250565b7f4552433732313a20617070726f76652063616c6c6572206973206e6f74206f7760008201527f6e6572206e6f7220617070726f76656420666f7220616c6c0000000000000000602082015250565b7f4552433732313a2062616c616e636520717565727920666f7220746865207a6560008201527f726f206164647265737300000000000000000000000000000000000000000000602082015250565b7f4552433732313a206f776e657220717565727920666f72206e6f6e657869737460008201527f656e7420746f6b656e0000000000000000000000000000000000000000000000602082015250565b7f4552433732313a206d696e7420746f20746865207a65726f2061646472657373600082015250565b7f4e6f206574686572206c65667420746f20776974686472617700000000000000600082015250565b7f4552433732313a20617070726f76656420717565727920666f72206e6f6e657860008201527f697374656e7420746f6b656e0000000000000000000000000000000000000000602082015250565b7f4f776e61626c653a2063616c6c6572206973206e6f7420746865206f776e6572600082015250565b7f4552433732313a207472616e73666572206f6620746f6b656e2074686174206960008201527f73206e6f74206f776e0000000000000000000000000000000000000000000000602082015250565b7f4552433732314d657461646174613a2055524920717565727920666f72206e6f60008201527f6e6578697374656e7420746f6b656e0000000000000000000000000000000000602082015250565b7f4552433732313a20617070726f76616c20746f2063757272656e74206f776e6560008201527f7200000000000000000000000000000000000000000000000000000000000000602082015250565b50565b7f5472616e73666572206661696c65642e00000000000000000000000000000000600082015250565b7f4552433732313a207472616e736665722063616c6c6572206973206e6f74206f60008201527f776e6572206e6f7220617070726f766564000000000000000000000000000000602082015250565b7f455243373231456e756d657261626c653a20676c6f62616c20696e646578206f60008201527f7574206f6620626f756e64730000000000000000000000000000000000000000602082015250565b61401381613798565b811461401e57600080fd5b50565b61402a816137aa565b811461403557600080fd5b50565b614041816137b6565b811461404c57600080fd5b50565b61405881613802565b811461406357600080fd5b5056fea2646970667358221220a40142c27af7ea5730829c652286c72da4b0b98b97542daa2ca96091a1d7274964736f6c63430008040033",
    "linkReferences": {},
    "deployedLinkReferences": {}
}