{
  "_format": "hh-sol-artifact-1",
  "contractName": "PeriodicalsCollection",
  "sourceName": "contracts/PeriodicalsCollection.sol",
  "abi": [
    {
      "inputs": [
        {
          "internalType": "string",
          "name": "baseURI",
          "type": "string"
        }
      ],
      "stateMutability": "nonpayable",
      "type": "constructor"
    },
    {
      "anonymous": false,
      "inputs": [
        {
          "indexed": true,
          "internalType": "address",
          "name": "owner",
          "type": "address"
        },
        {
          "indexed": true,
          "internalType": "address",
          "name": "approved",
          "type": "address"
        },
        {
          "indexed": true,
          "internalType": "uint256",
          "name": "tokenId",
          "type": "uint256"
        }
      ],
      "name": "Approval",
      "type": "event"
    },
    {
      "anonymous": false,
      "inputs": [
        {
          "indexed": true,
          "internalType": "address",
          "name": "owner",
          "type": "address"
        },
        {
          "indexed": true,
          "internalType": "address",
          "name": "operator",
          "type": "address"
        },
        {
          "indexed": false,
          "internalType": "bool",
          "name": "approved",
          "type": "bool"
        }
      ],
      "name": "ApprovalForAll",
      "type": "event"
    },
    {
      "anonymous": false,
      "inputs": [
        {
          "indexed": true,
          "internalType": "address",
          "name": "previousOwner",
          "type": "address"
        },
        {
          "indexed": true,
          "internalType": "address",
          "name": "newOwner",
          "type": "address"
        }
      ],
      "name": "OwnershipTransferred",
      "type": "event"
    },
    {
      "anonymous": false,
      "inputs": [
        {
          "indexed": true,
          "internalType": "address",
          "name": "from",
          "type": "address"
        },
        {
          "indexed": true,
          "internalType": "address",
          "name": "to",
          "type": "address"
        },
        {
          "indexed": true,
          "internalType": "uint256",
          "name": "tokenId",
          "type": "uint256"
        }
      ],
      "name": "Transfer",
      "type": "event"
    },
    {
      "inputs": [],
      "name": "MAX_SUPPLY",
      "outputs": [
        {
          "internalType": "uint256",
          "name": "",
          "type": "uint256"
        }
      ],
      "stateMutability": "view",
      "type": "function"
    },
    {
      "inputs": [],
      "name": "PRICE",
      "outputs": [
        {
          "internalType": "uint256",
          "name": "",
          "type": "uint256"
        }
      ],
      "stateMutability": "view",
      "type": "function"
    },
    {
      "inputs": [
        {
          "internalType": "address",
          "name": "to",
          "type": "address"
        },
        {
          "internalType": "uint256",
          "name": "tokenId",
          "type": "uint256"
        }
      ],
      "name": "approve",
      "outputs": [],
      "stateMutability": "nonpayable",
      "type": "function"
    },
    {
      "inputs": [
        {
          "internalType": "address",
          "name": "owner",
          "type": "address"
        }
      ],
      "name": "balanceOf",
      "outputs": [
        {
          "internalType": "uint256",
          "name": "",
          "type": "uint256"
        }
      ],
      "stateMutability": "view",
      "type": "function"
    },
    {
      "inputs": [],
      "name": "baseTokenURI",
      "outputs": [
        {
          "internalType": "string",
          "name": "",
          "type": "string"
        }
      ],
      "stateMutability": "view",
      "type": "function"
    },
    {
      "inputs": [
        {
          "internalType": "uint256",
          "name": "tokenId",
          "type": "uint256"
        }
      ],
      "name": "getApproved",
      "outputs": [
        {
          "internalType": "address",
          "name": "",
          "type": "address"
        }
      ],
      "stateMutability": "view",
      "type": "function"
    },
    {
      "inputs": [
        {
          "internalType": "address",
          "name": "owner",
          "type": "address"
        },
        {
          "internalType": "address",
          "name": "operator",
          "type": "address"
        }
      ],
      "name": "isApprovedForAll",
      "outputs": [
        {
          "internalType": "bool",
          "name": "",
          "type": "bool"
        }
      ],
      "stateMutability": "view",
      "type": "function"
    },
    {
      "inputs": [
        {
          "internalType": "uint256",
          "name": "_count",
          "type": "uint256"
        }
      ],
      "name": "mintNFTs",
      "outputs": [],
      "stateMutability": "payable",
      "type": "function"
    },
    {
      "inputs": [],
      "name": "name",
      "outputs": [
        {
          "internalType": "string",
          "name": "",
          "type": "string"
        }
      ],
      "stateMutability": "view",
      "type": "function"
    },
    {
      "inputs": [],
      "name": "owner",
      "outputs": [
        {
          "internalType": "address",
          "name": "",
          "type": "address"
        }
      ],
      "stateMutability": "view",
      "type": "function"
    },
    {
      "inputs": [
        {
          "internalType": "uint256",
          "name": "tokenId",
          "type": "uint256"
        }
      ],
      "name": "ownerOf",
      "outputs": [
        {
          "internalType": "address",
          "name": "",
          "type": "address"
        }
      ],
      "stateMutability": "view",
      "type": "function"
    },
    {
      "inputs": [],
      "name": "renounceOwnership",
      "outputs": [],
      "stateMutability": "nonpayable",
      "type": "function"
    },
    {
      "inputs": [
        {
          "internalType": "address",
          "name": "from",
          "type": "address"
        },
        {
          "internalType": "address",
          "name": "to",
          "type": "address"
        },
        {
          "internalType": "uint256",
          "name": "tokenId",
          "type": "uint256"
        }
      ],
      "name": "safeTransferFrom",
      "outputs": [],
      "stateMutability": "nonpayable",
      "type": "function"
    },
    {
      "inputs": [
        {
          "internalType": "address",
          "name": "from",
          "type": "address"
        },
        {
          "internalType": "address",
          "name": "to",
          "type": "address"
        },
        {
          "internalType": "uint256",
          "name": "tokenId",
          "type": "uint256"
        },
        {
          "internalType": "bytes",
          "name": "_data",
          "type": "bytes"
        }
      ],
      "name": "safeTransferFrom",
      "outputs": [],
      "stateMutability": "nonpayable",
      "type": "function"
    },
    {
      "inputs": [
        {
          "internalType": "address",
          "name": "operator",
          "type": "address"
        },
        {
          "internalType": "bool",
          "name": "approved",
          "type": "bool"
        }
      ],
      "name": "setApprovalForAll",
      "outputs": [],
      "stateMutability": "nonpayable",
      "type": "function"
    },
    {
      "inputs": [
        {
          "internalType": "string",
          "name": "_baseTokenURI",
          "type": "string"
        }
      ],
      "name": "setBaseURI",
      "outputs": [],
      "stateMutability": "nonpayable",
      "type": "function"
    },
    {
      "inputs": [
        {
          "internalType": "bytes4",
          "name": "interfaceId",
          "type": "bytes4"
        }
      ],
      "name": "supportsInterface",
      "outputs": [
        {
          "internalType": "bool",
          "name": "",
          "type": "bool"
        }
      ],
      "stateMutability": "view",
      "type": "function"
    },
    {
      "inputs": [],
      "name": "symbol",
      "outputs": [
        {
          "internalType": "string",
          "name": "",
          "type": "string"
        }
      ],
      "stateMutability": "view",
      "type": "function"
    },
    {
      "inputs": [
        {
          "internalType": "uint256",
          "name": "tokenId",
          "type": "uint256"
        }
      ],
      "name": "tokenURI",
      "outputs": [
        {
          "internalType": "string",
          "name": "",
          "type": "string"
        }
      ],
      "stateMutability": "view",
      "type": "function"
    },
    {
      "inputs": [
        {
          "internalType": "address",
          "name": "from",
          "type": "address"
        },
        {
          "internalType": "address",
          "name": "to",
          "type": "address"
        },
        {
          "internalType": "uint256",
          "name": "tokenId",
          "type": "uint256"
        }
      ],
      "name": "transferFrom",
      "outputs": [],
      "stateMutability": "nonpayable",
      "type": "function"
    },
    {
      "inputs": [
        {
          "internalType": "address",
          "name": "newOwner",
          "type": "address"
        }
      ],
      "name": "transferOwnership",
      "outputs": [],
      "stateMutability": "nonpayable",
      "type": "function"
    },
    {
      "inputs": [],
      "name": "withdraw",
      "outputs": [],
      "stateMutability": "payable",
      "type": "function"
    }
  ],
  "bytecode": "0x60806040523480156200001157600080fd5b5060405162003b1d38038062003b1d8339818101604052810190620000379190620003b8565b60405180606001604052806021815260200162003afc602191396040518060400160405280600481526020017f474d45500000000000000000000000000000000000000000000000000000000081525081600090805190602001906200009f92919062000296565b508060019080519060200190620000b892919062000296565b505050620000db620000cf620000f360201b60201c565b620000fb60201b60201c565b620000ec81620001c160201b60201c565b50620005f0565b600033905090565b6000600660009054906101000a900473ffffffffffffffffffffffffffffffffffffffff16905081600660006101000a81548173ffffffffffffffffffffffffffffffffffffffff021916908373ffffffffffffffffffffffffffffffffffffffff1602179055508173ffffffffffffffffffffffffffffffffffffffff168173ffffffffffffffffffffffffffffffffffffffff167f8be0079c531659141344cd1fd0a4f28419497f9722a3daafe3b4186f6b6457e060405160405180910390a35050565b620001d1620000f360201b60201c565b73ffffffffffffffffffffffffffffffffffffffff16620001f76200026c60201b60201c565b73ffffffffffffffffffffffffffffffffffffffff161462000250576040517f08c379a0000000000000000000000000000000000000000000000000000000008152600401620002479062000424565b60405180910390fd5b80600890805190602001906200026892919062000296565b5050565b6000600660009054906101000a900473ffffffffffffffffffffffffffffffffffffffff16905090565b828054620002a490620004ec565b90600052602060002090601f016020900481019282620002c8576000855562000314565b82601f10620002e357805160ff191683800117855562000314565b8280016001018555821562000314579182015b8281111562000313578251825591602001919060010190620002f6565b5b50905062000323919062000327565b5090565b5b808211156200034257600081600090555060010162000328565b5090565b60006200035d62000357846200046f565b62000446565b9050828152602081018484840111156200037657600080fd5b62000383848285620004b6565b509392505050565b600082601f8301126200039d57600080fd5b8151620003af84826020860162000346565b91505092915050565b600060208284031215620003cb57600080fd5b600082015167ffffffffffffffff811115620003e657600080fd5b620003f4848285016200038b565b91505092915050565b60006200040c602083620004a5565b91506200041982620005c7565b602082019050919050565b600060208201905081810360008301526200043f81620003fd565b9050919050565b60006200045262000465565b905062000460828262000522565b919050565b6000604051905090565b600067ffffffffffffffff8211156200048d576200048c62000587565b5b6200049882620005b6565b9050602081019050919050565b600082825260208201905092915050565b60005b83811015620004d6578082015181840152602081019050620004b9565b83811115620004e6576000848401525b50505050565b600060028204905060018216806200050557607f821691505b602082108114156200051c576200051b62000558565b5b50919050565b6200052d82620005b6565b810181811067ffffffffffffffff821117156200054f576200054e62000587565b5b80604052505050565b7f4e487b7100000000000000000000000000000000000000000000000000000000600052602260045260246000fd5b7f4e487b7100000000000000000000000000000000000000000000000000000000600052604160045260246000fd5b6000601f19601f8301169050919050565b7f4f776e61626c653a2063616c6c6572206973206e6f7420746865206f776e6572600082015250565b6134fc80620006006000396000f3fe6080604052600436106101355760003560e01c806370a08231116100ab578063a22cb4651161006f578063a22cb465146103e6578063b88d4fde1461040f578063c87b56dd14610438578063d547cfb714610475578063e985e9c5146104a0578063f2fde38b146104dd57610135565b806370a0823114610311578063715018a61461034e5780638d859f3e146103655780638da5cb5b1461039057806395d89b41146103bb57610135565b806332cb6b0c116100fd57806332cb6b0c146102315780633b4b13811461025c5780633ccfd60b1461027857806342842e0e1461028257806355f804b3146102ab5780636352211e146102d457610135565b806301ffc9a71461013a57806306fdde0314610177578063081812fc146101a2578063095ea7b3146101df57806323b872dd14610208575b600080fd5b34801561014657600080fd5b50610161600480360381019061015c919061233e565b610506565b60405161016e9190612849565b60405180910390f35b34801561018357600080fd5b5061018c6105e8565b6040516101999190612864565b60405180910390f35b3480156101ae57600080fd5b506101c960048036038101906101c491906123d1565b61067a565b6040516101d691906127e2565b60405180910390f35b3480156101eb57600080fd5b5061020660048036038101906102019190612302565b6106ff565b005b34801561021457600080fd5b5061022f600480360381019061022a91906121fc565b610817565b005b34801561023d57600080fd5b50610246610877565b6040516102539190612b06565b60405180910390f35b610276600480360381019061027191906123d1565b61087c565b005b610280610968565b005b34801561028e57600080fd5b506102a960048036038101906102a491906121fc565b610adc565b005b3480156102b757600080fd5b506102d260048036038101906102cd9190612390565b610afc565b005b3480156102e057600080fd5b506102fb60048036038101906102f691906123d1565b610b92565b60405161030891906127e2565b60405180910390f35b34801561031d57600080fd5b5061033860048036038101906103339190612197565b610c44565b6040516103459190612b06565b60405180910390f35b34801561035a57600080fd5b50610363610cfc565b005b34801561037157600080fd5b5061037a610d84565b6040516103879190612b06565b60405180910390f35b34801561039c57600080fd5b506103a5610d90565b6040516103b291906127e2565b60405180910390f35b3480156103c757600080fd5b506103d0610dba565b6040516103dd9190612864565b60405180910390f35b3480156103f257600080fd5b5061040d600480360381019061040891906122c6565b610e4c565b005b34801561041b57600080fd5b506104366004803603810190610431919061224b565b610e62565b005b34801561044457600080fd5b5061045f600480360381019061045a91906123d1565b610ec4565b60405161046c9190612864565b60405180910390f35b34801561048157600080fd5b5061048a610f6b565b6040516104979190612864565b60405180910390f35b3480156104ac57600080fd5b506104c760048036038101906104c291906121c0565b610ff9565b6040516104d49190612849565b60405180910390f35b3480156104e957600080fd5b5061050460048036038101906104ff9190612197565b61108d565b005b60007f80ac58cd000000000000000000000000000000000000000000000000000000007bffffffffffffffffffffffffffffffffffffffffffffffffffffffff1916827bffffffffffffffffffffffffffffffffffffffffffffffffffffffff191614806105d157507f5b5e139f000000000000000000000000000000000000000000000000000000007bffffffffffffffffffffffffffffffffffffffffffffffffffffffff1916827bffffffffffffffffffffffffffffffffffffffffffffffffffffffff1916145b806105e157506105e082611185565b5b9050919050565b6060600080546105f790612dc1565b80601f016020809104026020016040519081016040528092919081815260200182805461062390612dc1565b80156106705780601f1061064557610100808354040283529160200191610670565b820191906000526020600020905b81548152906001019060200180831161065357829003601f168201915b5050505050905090565b6000610685826111ef565b6106c4576040517f08c379a00000000000000000000000000000000000000000000000000000000081526004016106bb90612a46565b60405180910390fd5b6004600083815260200190815260200160002060009054906101000a900473ffffffffffffffffffffffffffffffffffffffff169050919050565b600061070a82610b92565b90508073ffffffffffffffffffffffffffffffffffffffff168373ffffffffffffffffffffffffffffffffffffffff16141561077b576040517f08c379a000000000000000000000000000000000000000000000000000000000815260040161077290612aa6565b60405180910390fd5b8073ffffffffffffffffffffffffffffffffffffffff1661079a61125b565b73ffffffffffffffffffffffffffffffffffffffff1614806107c957506107c8816107c361125b565b610ff9565b5b610808576040517f08c379a00000000000000000000000000000000000000000000000000000000081526004016107ff906129a6565b60405180910390fd5b6108128383611263565b505050565b61082861082261125b565b8261131c565b610867576040517f08c379a000000000000000000000000000000000000000000000000000000000815260040161085e90612ac6565b60405180910390fd5b6108728383836113fa565b505050565b601981565b60006108886007611661565b9050601961089f838361166f90919063ffffffff16565b11156108e0576040517f08c379a00000000000000000000000000000000000000000000000000000000081526004016108d7906128a6565b60405180910390fd5b6108fb8267016345785d8a000061168590919063ffffffff16565b34101561093d576040517f08c379a000000000000000000000000000000000000000000000000000000000815260040161093490612926565b60405180910390fd5b60005b828110156109635761095061169b565b808061095b90612e24565b915050610940565b505050565b61097061125b565b73ffffffffffffffffffffffffffffffffffffffff1661098e610d90565b73ffffffffffffffffffffffffffffffffffffffff16146109e4576040517f08c379a00000000000000000000000000000000000000000000000000000000081526004016109db90612a66565b60405180910390fd5b600047905060008111610a2c576040517f08c379a0000000000000000000000000000000000000000000000000000000008152600401610a2390612a26565b60405180910390fd5b60003373ffffffffffffffffffffffffffffffffffffffff1682604051610a52906127cd565b60006040518083038185875af1925050503d8060008114610a8f576040519150601f19603f3d011682016040523d82523d6000602084013e610a94565b606091505b5050905080610ad8576040517f08c379a0000000000000000000000000000000000000000000000000000000008152600401610acf90612ae6565b60405180910390fd5b5050565b610af783838360405180602001604052806000815250610e62565b505050565b610b0461125b565b73ffffffffffffffffffffffffffffffffffffffff16610b22610d90565b73ffffffffffffffffffffffffffffffffffffffff1614610b78576040517f08c379a0000000000000000000000000000000000000000000000000000000008152600401610b6f90612a66565b60405180910390fd5b8060089080519060200190610b8e929190611fbb565b5050565b6000806002600084815260200190815260200160002060009054906101000a900473ffffffffffffffffffffffffffffffffffffffff169050600073ffffffffffffffffffffffffffffffffffffffff168173ffffffffffffffffffffffffffffffffffffffff161415610c3b576040517f08c379a0000000000000000000000000000000000000000000000000000000008152600401610c32906129e6565b60405180910390fd5b80915050919050565b60008073ffffffffffffffffffffffffffffffffffffffff168273ffffffffffffffffffffffffffffffffffffffff161415610cb5576040517f08c379a0000000000000000000000000000000000000000000000000000000008152600401610cac906129c6565b60405180910390fd5b600360008373ffffffffffffffffffffffffffffffffffffffff1673ffffffffffffffffffffffffffffffffffffffff168152602001908152602001600020549050919050565b610d0461125b565b73ffffffffffffffffffffffffffffffffffffffff16610d22610d90565b73ffffffffffffffffffffffffffffffffffffffff1614610d78576040517f08c379a0000000000000000000000000000000000000000000000000000000008152600401610d6f90612a66565b60405180910390fd5b610d8260006116c0565b565b67016345785d8a000081565b6000600660009054906101000a900473ffffffffffffffffffffffffffffffffffffffff16905090565b606060018054610dc990612dc1565b80601f0160208091040260200160405190810160405280929190818152602001828054610df590612dc1565b8015610e425780601f10610e1757610100808354040283529160200191610e42565b820191906000526020600020905b815481529060010190602001808311610e2557829003601f168201915b5050505050905090565b610e5e610e5761125b565b8383611786565b5050565b610e73610e6d61125b565b8361131c565b610eb2576040517f08c379a0000000000000000000000000000000000000000000000000000000008152600401610ea990612ac6565b60405180910390fd5b610ebe848484846118f3565b50505050565b6060610ecf826111ef565b610f0e576040517f08c379a0000000000000000000000000000000000000000000000000000000008152600401610f0590612a86565b60405180910390fd5b6000610f1861194f565b90506000815111610f385760405180602001604052806000815250610f63565b80610f42846119e1565b604051602001610f539291906127a9565b6040516020818303038152906040525b915050919050565b60088054610f7890612dc1565b80601f0160208091040260200160405190810160405280929190818152602001828054610fa490612dc1565b8015610ff15780601f10610fc657610100808354040283529160200191610ff1565b820191906000526020600020905b815481529060010190602001808311610fd457829003601f168201915b505050505081565b6000600560008473ffffffffffffffffffffffffffffffffffffffff1673ffffffffffffffffffffffffffffffffffffffff16815260200190815260200160002060008373ffffffffffffffffffffffffffffffffffffffff1673ffffffffffffffffffffffffffffffffffffffff16815260200190815260200160002060009054906101000a900460ff16905092915050565b61109561125b565b73ffffffffffffffffffffffffffffffffffffffff166110b3610d90565b73ffffffffffffffffffffffffffffffffffffffff1614611109576040517f08c379a000000000000000000000000000000000000000000000000000000000815260040161110090612a66565b60405180910390fd5b600073ffffffffffffffffffffffffffffffffffffffff168173ffffffffffffffffffffffffffffffffffffffff161415611179576040517f08c379a0000000000000000000000000000000000000000000000000000000008152600401611170906128c6565b60405180910390fd5b611182816116c0565b50565b60007f01ffc9a7000000000000000000000000000000000000000000000000000000007bffffffffffffffffffffffffffffffffffffffffffffffffffffffff1916827bffffffffffffffffffffffffffffffffffffffffffffffffffffffff1916149050919050565b60008073ffffffffffffffffffffffffffffffffffffffff166002600084815260200190815260200160002060009054906101000a900473ffffffffffffffffffffffffffffffffffffffff1673ffffffffffffffffffffffffffffffffffffffff1614159050919050565b600033905090565b816004600083815260200190815260200160002060006101000a81548173ffffffffffffffffffffffffffffffffffffffff021916908373ffffffffffffffffffffffffffffffffffffffff160217905550808273ffffffffffffffffffffffffffffffffffffffff166112d683610b92565b73ffffffffffffffffffffffffffffffffffffffff167f8c5be1e5ebec7d5bd14f71427d1e84f3dd0314c0f7b2291e5b200ac8c7c3b92560405160405180910390a45050565b6000611327826111ef565b611366576040517f08c379a000000000000000000000000000000000000000000000000000000000815260040161135d90612986565b60405180910390fd5b600061137183610b92565b90508073ffffffffffffffffffffffffffffffffffffffff168473ffffffffffffffffffffffffffffffffffffffff1614806113e057508373ffffffffffffffffffffffffffffffffffffffff166113c88461067a565b73ffffffffffffffffffffffffffffffffffffffff16145b806113f157506113f08185610ff9565b5b91505092915050565b8273ffffffffffffffffffffffffffffffffffffffff1661141a82610b92565b73ffffffffffffffffffffffffffffffffffffffff1614611470576040517f08c379a0000000000000000000000000000000000000000000000000000000008152600401611467906128e6565b60405180910390fd5b600073ffffffffffffffffffffffffffffffffffffffff168273ffffffffffffffffffffffffffffffffffffffff1614156114e0576040517f08c379a00000000000000000000000000000000000000000000000000000000081526004016114d790612946565b60405180910390fd5b6114eb838383611b8e565b6114f6600082611263565b6001600360008573ffffffffffffffffffffffffffffffffffffffff1673ffffffffffffffffffffffffffffffffffffffff16815260200190815260200160002060008282546115469190612cd7565b925050819055506001600360008473ffffffffffffffffffffffffffffffffffffffff1673ffffffffffffffffffffffffffffffffffffffff168152602001908152602001600020600082825461159d9190612bf6565b92505081905550816002600083815260200190815260200160002060006101000a81548173ffffffffffffffffffffffffffffffffffffffff021916908373ffffffffffffffffffffffffffffffffffffffff160217905550808273ffffffffffffffffffffffffffffffffffffffff168473ffffffffffffffffffffffffffffffffffffffff167fddf252ad1be2c89b69c2b068fc378daa952ba7f163c4a11628f55a4df523b3ef60405160405180910390a461165c838383611b93565b505050565b600081600001549050919050565b6000818361167d9190612bf6565b905092915050565b600081836116939190612c7d565b905092915050565b60006116a76007611661565b90506116b33382611b98565b6116bd6007611bb6565b50565b6000600660009054906101000a900473ffffffffffffffffffffffffffffffffffffffff16905081600660006101000a81548173ffffffffffffffffffffffffffffffffffffffff021916908373ffffffffffffffffffffffffffffffffffffffff1602179055508173ffffffffffffffffffffffffffffffffffffffff168173ffffffffffffffffffffffffffffffffffffffff167f8be0079c531659141344cd1fd0a4f28419497f9722a3daafe3b4186f6b6457e060405160405180910390a35050565b8173ffffffffffffffffffffffffffffffffffffffff168373ffffffffffffffffffffffffffffffffffffffff1614156117f5576040517f08c379a00000000000000000000000000000000000000000000000000000000081526004016117ec90612966565b60405180910390fd5b80600560008573ffffffffffffffffffffffffffffffffffffffff1673ffffffffffffffffffffffffffffffffffffffff16815260200190815260200160002060008473ffffffffffffffffffffffffffffffffffffffff1673ffffffffffffffffffffffffffffffffffffffff16815260200190815260200160002060006101000a81548160ff0219169083151502179055508173ffffffffffffffffffffffffffffffffffffffff168373ffffffffffffffffffffffffffffffffffffffff167f17307eab39ab6107e8899845ad3d59bd9653f200f220920489ca2b5937696c31836040516118e69190612849565b60405180910390a3505050565b6118fe8484846113fa565b61190a84848484611bcc565b611949576040517f08c379a000000000000000000000000000000000000000000000000000000000815260040161194090612886565b60405180910390fd5b50505050565b60606008805461195e90612dc1565b80601f016020809104026020016040519081016040528092919081815260200182805461198a90612dc1565b80156119d75780601f106119ac576101008083540402835291602001916119d7565b820191906000526020600020905b8154815290600101906020018083116119ba57829003601f168201915b5050505050905090565b60606000821415611a29576040518060400160405280600181526020017f30000000000000000000000000000000000000000000000000000000000000008152509050611b89565b600082905060005b60008214611a5b578080611a4490612e24565b915050600a82611a549190612c4c565b9150611a31565b60008167ffffffffffffffff811115611a9d577f4e487b7100000000000000000000000000000000000000000000000000000000600052604160045260246000fd5b6040519080825280601f01601f191660200182016040528015611acf5781602001600182028036833780820191505090505b5090505b60008514611b8257600182611ae89190612cd7565b9150600a85611af79190612e6d565b6030611b039190612bf6565b60f81b818381518110611b3f577f4e487b7100000000000000000000000000000000000000000000000000000000600052603260045260246000fd5b60200101907effffffffffffffffffffffffffffffffffffffffffffffffffffffffffffff1916908160001a905350600a85611b7b9190612c4c565b9450611ad3565b8093505050505b919050565b505050565b505050565b611bb2828260405180602001604052806000815250611d63565b5050565b6001816000016000828254019250508190555050565b6000611bed8473ffffffffffffffffffffffffffffffffffffffff16611dbe565b15611d56578373ffffffffffffffffffffffffffffffffffffffff1663150b7a02611c1661125b565b8786866040518563ffffffff1660e01b8152600401611c3894939291906127fd565b602060405180830381600087803b158015611c5257600080fd5b505af1925050508015611c8357506040513d601f19601f82011682018060405250810190611c809190612367565b60015b611d06573d8060008114611cb3576040519150601f19603f3d011682016040523d82523d6000602084013e611cb8565b606091505b50600081511415611cfe576040517f08c379a0000000000000000000000000000000000000000000000000000000008152600401611cf590612886565b60405180910390fd5b805181602001fd5b63150b7a0260e01b7bffffffffffffffffffffffffffffffffffffffffffffffffffffffff1916817bffffffffffffffffffffffffffffffffffffffffffffffffffffffff191614915050611d5b565b600190505b949350505050565b611d6d8383611de1565b611d7a6000848484611bcc565b611db9576040517f08c379a0000000000000000000000000000000000000000000000000000000008152600401611db090612886565b60405180910390fd5b505050565b6000808273ffffffffffffffffffffffffffffffffffffffff163b119050919050565b600073ffffffffffffffffffffffffffffffffffffffff168273ffffffffffffffffffffffffffffffffffffffff161415611e51576040517f08c379a0000000000000000000000000000000000000000000000000000000008152600401611e4890612a06565b60405180910390fd5b611e5a816111ef565b15611e9a576040517f08c379a0000000000000000000000000000000000000000000000000000000008152600401611e9190612906565b60405180910390fd5b611ea660008383611b8e565b6001600360008473ffffffffffffffffffffffffffffffffffffffff1673ffffffffffffffffffffffffffffffffffffffff1681526020019081526020016000206000828254611ef69190612bf6565b92505081905550816002600083815260200190815260200160002060006101000a81548173ffffffffffffffffffffffffffffffffffffffff021916908373ffffffffffffffffffffffffffffffffffffffff160217905550808273ffffffffffffffffffffffffffffffffffffffff16600073ffffffffffffffffffffffffffffffffffffffff167fddf252ad1be2c89b69c2b068fc378daa952ba7f163c4a11628f55a4df523b3ef60405160405180910390a4611fb760008383611b93565b5050565b828054611fc790612dc1565b90600052602060002090601f016020900481019282611fe95760008555612030565b82601f1061200257805160ff1916838001178555612030565b82800160010185558215612030579182015b8281111561202f578251825591602001919060010190612014565b5b50905061203d9190612041565b5090565b5b8082111561205a576000816000905550600101612042565b5090565b600061207161206c84612b46565b612b21565b90508281526020810184848401111561208957600080fd5b612094848285612d7f565b509392505050565b60006120af6120aa84612b77565b612b21565b9050828152602081018484840111156120c757600080fd5b6120d2848285612d7f565b509392505050565b6000813590506120e98161346a565b92915050565b6000813590506120fe81613481565b92915050565b60008135905061211381613498565b92915050565b60008151905061212881613498565b92915050565b600082601f83011261213f57600080fd5b813561214f84826020860161205e565b91505092915050565b600082601f83011261216957600080fd5b813561217984826020860161209c565b91505092915050565b600081359050612191816134af565b92915050565b6000602082840312156121a957600080fd5b60006121b7848285016120da565b91505092915050565b600080604083850312156121d357600080fd5b60006121e1858286016120da565b92505060206121f2858286016120da565b9150509250929050565b60008060006060848603121561221157600080fd5b600061221f868287016120da565b9350506020612230868287016120da565b925050604061224186828701612182565b9150509250925092565b6000806000806080858703121561226157600080fd5b600061226f878288016120da565b9450506020612280878288016120da565b935050604061229187828801612182565b925050606085013567ffffffffffffffff8111156122ae57600080fd5b6122ba8782880161212e565b91505092959194509250565b600080604083850312156122d957600080fd5b60006122e7858286016120da565b92505060206122f8858286016120ef565b9150509250929050565b6000806040838503121561231557600080fd5b6000612323858286016120da565b925050602061233485828601612182565b9150509250929050565b60006020828403121561235057600080fd5b600061235e84828501612104565b91505092915050565b60006020828403121561237957600080fd5b600061238784828501612119565b91505092915050565b6000602082840312156123a257600080fd5b600082013567ffffffffffffffff8111156123bc57600080fd5b6123c884828501612158565b91505092915050565b6000602082840312156123e357600080fd5b60006123f184828501612182565b91505092915050565b61240381612d0b565b82525050565b61241281612d1d565b82525050565b600061242382612ba8565b61242d8185612bbe565b935061243d818560208601612d8e565b61244681612f5a565b840191505092915050565b600061245c82612bb3565b6124668185612bda565b9350612476818560208601612d8e565b61247f81612f5a565b840191505092915050565b600061249582612bb3565b61249f8185612beb565b93506124af818560208601612d8e565b80840191505092915050565b60006124c8603283612bda565b91506124d382612f6b565b604082019050919050565b60006124eb600683612bda565b91506124f682612fba565b602082019050919050565b600061250e602683612bda565b915061251982612fe3565b604082019050919050565b6000612531602583612bda565b915061253c82613032565b604082019050919050565b6000612554601c83612bda565b915061255f82613081565b602082019050919050565b6000612577600b83612bda565b9150612582826130aa565b602082019050919050565b600061259a602483612bda565b91506125a5826130d3565b604082019050919050565b60006125bd601983612bda565b91506125c882613122565b602082019050919050565b60006125e0602c83612bda565b91506125eb8261314b565b604082019050919050565b6000612603603883612bda565b915061260e8261319a565b604082019050919050565b6000612626602a83612bda565b9150612631826131e9565b604082019050919050565b6000612649602983612bda565b915061265482613238565b604082019050919050565b600061266c602083612bda565b915061267782613287565b602082019050919050565b600061268f600983612bda565b915061269a826132b0565b602082019050919050565b60006126b2602c83612bda565b91506126bd826132d9565b604082019050919050565b60006126d5602083612bda565b91506126e082613328565b602082019050919050565b60006126f8602f83612bda565b915061270382613351565b604082019050919050565b600061271b602183612bda565b9150612726826133a0565b604082019050919050565b600061273e600083612bcf565b9150612749826133ef565b600082019050919050565b6000612761603183612bda565b915061276c826133f2565b604082019050919050565b6000612784600983612bda565b915061278f82613441565b602082019050919050565b6127a381612d75565b82525050565b60006127b5828561248a565b91506127c1828461248a565b91508190509392505050565b60006127d882612731565b9150819050919050565b60006020820190506127f760008301846123fa565b92915050565b600060808201905061281260008301876123fa565b61281f60208301866123fa565b61282c604083018561279a565b818103606083015261283e8184612418565b905095945050505050565b600060208201905061285e6000830184612409565b92915050565b6000602082019050818103600083015261287e8184612451565b905092915050565b6000602082019050818103600083015261289f816124bb565b9050919050565b600060208201905081810360008301526128bf816124de565b9050919050565b600060208201905081810360008301526128df81612501565b9050919050565b600060208201905081810360008301526128ff81612524565b9050919050565b6000602082019050818103600083015261291f81612547565b9050919050565b6000602082019050818103600083015261293f8161256a565b9050919050565b6000602082019050818103600083015261295f8161258d565b9050919050565b6000602082019050818103600083015261297f816125b0565b9050919050565b6000602082019050818103600083015261299f816125d3565b9050919050565b600060208201905081810360008301526129bf816125f6565b9050919050565b600060208201905081810360008301526129df81612619565b9050919050565b600060208201905081810360008301526129ff8161263c565b9050919050565b60006020820190508181036000830152612a1f8161265f565b9050919050565b60006020820190508181036000830152612a3f81612682565b9050919050565b60006020820190508181036000830152612a5f816126a5565b9050919050565b60006020820190508181036000830152612a7f816126c8565b9050919050565b60006020820190508181036000830152612a9f816126eb565b9050919050565b60006020820190508181036000830152612abf8161270e565b9050919050565b60006020820190508181036000830152612adf81612754565b9050919050565b60006020820190508181036000830152612aff81612777565b9050919050565b6000602082019050612b1b600083018461279a565b92915050565b6000612b2b612b3c565b9050612b378282612df3565b919050565b6000604051905090565b600067ffffffffffffffff821115612b6157612b60612f2b565b5b612b6a82612f5a565b9050602081019050919050565b600067ffffffffffffffff821115612b9257612b91612f2b565b5b612b9b82612f5a565b9050602081019050919050565b600081519050919050565b600081519050919050565b600082825260208201905092915050565b600081905092915050565b600082825260208201905092915050565b600081905092915050565b6000612c0182612d75565b9150612c0c83612d75565b9250827fffffffffffffffffffffffffffffffffffffffffffffffffffffffffffffffff03821115612c4157612c40612e9e565b5b828201905092915050565b6000612c5782612d75565b9150612c6283612d75565b925082612c7257612c71612ecd565b5b828204905092915050565b6000612c8882612d75565b9150612c9383612d75565b9250817fffffffffffffffffffffffffffffffffffffffffffffffffffffffffffffffff0483118215151615612ccc57612ccb612e9e565b5b828202905092915050565b6000612ce282612d75565b9150612ced83612d75565b925082821015612d0057612cff612e9e565b5b828203905092915050565b6000612d1682612d55565b9050919050565b60008115159050919050565b60007fffffffff0000000000000000000000000000000000000000000000000000000082169050919050565b600073ffffffffffffffffffffffffffffffffffffffff82169050919050565b6000819050919050565b82818337600083830152505050565b60005b83811015612dac578082015181840152602081019050612d91565b83811115612dbb576000848401525b50505050565b60006002820490506001821680612dd957607f821691505b60208210811415612ded57612dec612efc565b5b50919050565b612dfc82612f5a565b810181811067ffffffffffffffff82111715612e1b57612e1a612f2b565b5b80604052505050565b6000612e2f82612d75565b91507fffffffffffffffffffffffffffffffffffffffffffffffffffffffffffffffff821415612e6257612e61612e9e565b5b600182019050919050565b6000612e7882612d75565b9150612e8383612d75565b925082612e9357612e92612ecd565b5b828206905092915050565b7f4e487b7100000000000000000000000000000000000000000000000000000000600052601160045260246000fd5b7f4e487b7100000000000000000000000000000000000000000000000000000000600052601260045260246000fd5b7f4e487b7100000000000000000000000000000000000000000000000000000000600052602260045260246000fd5b7f4e487b7100000000000000000000000000000000000000000000000000000000600052604160045260246000fd5b6000601f19601f8301169050919050565b7f4552433732313a207472616e7366657220746f206e6f6e20455243373231526560008201527f63656976657220696d706c656d656e7465720000000000000000000000000000602082015250565b7f30206c6566740000000000000000000000000000000000000000000000000000600082015250565b7f4f776e61626c653a206e6577206f776e657220697320746865207a65726f206160008201527f6464726573730000000000000000000000000000000000000000000000000000602082015250565b7f4552433732313a207472616e736665722066726f6d20696e636f72726563742060008201527f6f776e6572000000000000000000000000000000000000000000000000000000602082015250565b7f4552433732313a20746f6b656e20616c7265616479206d696e74656400000000600082015250565b7f4e656564206d6f72652024000000000000000000000000000000000000000000600082015250565b7f4552433732313a207472616e7366657220746f20746865207a65726f2061646460008201527f7265737300000000000000000000000000000000000000000000000000000000602082015250565b7f4552433732313a20617070726f766520746f2063616c6c657200000000000000600082015250565b7f4552433732313a206f70657261746f7220717565727920666f72206e6f6e657860008201527f697374656e7420746f6b656e0000000000000000000000000000000000000000602082015250565b7f4552433732313a20617070726f76652063616c6c6572206973206e6f74206f7760008201527f6e6572206e6f7220617070726f76656420666f7220616c6c0000000000000000602082015250565b7f4552433732313a2062616c616e636520717565727920666f7220746865207a6560008201527f726f206164647265737300000000000000000000000000000000000000000000602082015250565b7f4552433732313a206f776e657220717565727920666f72206e6f6e657869737460008201527f656e7420746f6b656e0000000000000000000000000000000000000000000000602082015250565b7f4552433732313a206d696e7420746f20746865207a65726f2061646472657373600082015250565b7f4e6f2024206c6566740000000000000000000000000000000000000000000000600082015250565b7f4552433732313a20617070726f76656420717565727920666f72206e6f6e657860008201527f697374656e7420746f6b656e0000000000000000000000000000000000000000602082015250565b7f4f776e61626c653a2063616c6c6572206973206e6f7420746865206f776e6572600082015250565b7f4552433732314d657461646174613a2055524920717565727920666f72206e6f60008201527f6e6578697374656e7420746f6b656e0000000000000000000000000000000000602082015250565b7f4552433732313a20617070726f76616c20746f2063757272656e74206f776e6560008201527f7200000000000000000000000000000000000000000000000000000000000000602082015250565b50565b7f4552433732313a207472616e736665722063616c6c6572206973206e6f74206f60008201527f776e6572206e6f7220617070726f766564000000000000000000000000000000602082015250565b7f54206661696c65642e0000000000000000000000000000000000000000000000600082015250565b61347381612d0b565b811461347e57600080fd5b50565b61348a81612d1d565b811461349557600080fd5b50565b6134a181612d29565b81146134ac57600080fd5b50565b6134b881612d75565b81146134c357600080fd5b5056fea26469706673582212201833e8ca9c66feb10a851dcc6f6ca67cb5b9d8564f734d9db83cc21bdfa1943c64736f6c63430008040033537570657253746f6e6b20506572696f646963616c7320436f6c6c656374696f6e",
  "linkReferences": {},
  "deployedLinkReferences": {}
}