{
  "_format": "hh-sol-artifact-1",
  "contractName": "ZCAT",
  "sourceName": "contracts/ZCAT.sol",
  "abi": [
    {
      "inputs": [
        {
          "internalType": "string",
          "name": "baseURI",
          "type": "string"
        }
      ],
      "stateMutability": "nonpayable",
      "type": "constructor"
    },
    {
      "anonymous": false,
      "inputs": [
        {
          "indexed": true,
          "internalType": "address",
          "name": "owner",
          "type": "address"
        },
        {
          "indexed": true,
          "internalType": "address",
          "name": "approved",
          "type": "address"
        },
        {
          "indexed": true,
          "internalType": "uint256",
          "name": "tokenId",
          "type": "uint256"
        }
      ],
      "name": "Approval",
      "type": "event"
    },
    {
      "anonymous": false,
      "inputs": [
        {
          "indexed": true,
          "internalType": "address",
          "name": "owner",
          "type": "address"
        },
        {
          "indexed": true,
          "internalType": "address",
          "name": "operator",
          "type": "address"
        },
        {
          "indexed": false,
          "internalType": "bool",
          "name": "approved",
          "type": "bool"
        }
      ],
      "name": "ApprovalForAll",
      "type": "event"
    },
    {
      "anonymous": false,
      "inputs": [
        {
          "indexed": true,
          "internalType": "address",
          "name": "previousOwner",
          "type": "address"
        },
        {
          "indexed": true,
          "internalType": "address",
          "name": "newOwner",
          "type": "address"
        }
      ],
      "name": "OwnershipTransferred",
      "type": "event"
    },
    {
      "anonymous": false,
      "inputs": [
        {
          "indexed": true,
          "internalType": "address",
          "name": "from",
          "type": "address"
        },
        {
          "indexed": true,
          "internalType": "address",
          "name": "to",
          "type": "address"
        },
        {
          "indexed": true,
          "internalType": "uint256",
          "name": "tokenId",
          "type": "uint256"
        }
      ],
      "name": "Transfer",
      "type": "event"
    },
    {
      "inputs": [],
      "name": "MAX_SUPPLY",
      "outputs": [
        {
          "internalType": "uint256",
          "name": "",
          "type": "uint256"
        }
      ],
      "stateMutability": "view",
      "type": "function"
    },
    {
      "inputs": [],
      "name": "PRICE",
      "outputs": [
        {
          "internalType": "uint256",
          "name": "",
          "type": "uint256"
        }
      ],
      "stateMutability": "view",
      "type": "function"
    },
    {
      "inputs": [
        {
          "internalType": "address",
          "name": "to",
          "type": "address"
        },
        {
          "internalType": "uint256",
          "name": "tokenId",
          "type": "uint256"
        }
      ],
      "name": "approve",
      "outputs": [],
      "stateMutability": "nonpayable",
      "type": "function"
    },
    {
      "inputs": [
        {
          "internalType": "address",
          "name": "owner",
          "type": "address"
        }
      ],
      "name": "balanceOf",
      "outputs": [
        {
          "internalType": "uint256",
          "name": "",
          "type": "uint256"
        }
      ],
      "stateMutability": "view",
      "type": "function"
    },
    {
      "inputs": [],
      "name": "baseTokenURI",
      "outputs": [
        {
          "internalType": "string",
          "name": "",
          "type": "string"
        }
      ],
      "stateMutability": "view",
      "type": "function"
    },
    {
      "inputs": [
        {
          "internalType": "uint256",
          "name": "tokenId",
          "type": "uint256"
        }
      ],
      "name": "getApproved",
      "outputs": [
        {
          "internalType": "address",
          "name": "",
          "type": "address"
        }
      ],
      "stateMutability": "view",
      "type": "function"
    },
    {
      "inputs": [
        {
          "internalType": "address",
          "name": "owner",
          "type": "address"
        },
        {
          "internalType": "address",
          "name": "operator",
          "type": "address"
        }
      ],
      "name": "isApprovedForAll",
      "outputs": [
        {
          "internalType": "bool",
          "name": "",
          "type": "bool"
        }
      ],
      "stateMutability": "view",
      "type": "function"
    },
    {
      "inputs": [
        {
          "internalType": "uint256",
          "name": "_count",
          "type": "uint256"
        }
      ],
      "name": "mintNFTs",
      "outputs": [],
      "stateMutability": "payable",
      "type": "function"
    },
    {
      "inputs": [],
      "name": "name",
      "outputs": [
        {
          "internalType": "string",
          "name": "",
          "type": "string"
        }
      ],
      "stateMutability": "view",
      "type": "function"
    },
    {
      "inputs": [],
      "name": "owner",
      "outputs": [
        {
          "internalType": "address",
          "name": "",
          "type": "address"
        }
      ],
      "stateMutability": "view",
      "type": "function"
    },
    {
      "inputs": [
        {
          "internalType": "uint256",
          "name": "tokenId",
          "type": "uint256"
        }
      ],
      "name": "ownerOf",
      "outputs": [
        {
          "internalType": "address",
          "name": "",
          "type": "address"
        }
      ],
      "stateMutability": "view",
      "type": "function"
    },
    {
      "inputs": [],
      "name": "renounceOwnership",
      "outputs": [],
      "stateMutability": "nonpayable",
      "type": "function"
    },
    {
      "inputs": [
        {
          "internalType": "address",
          "name": "from",
          "type": "address"
        },
        {
          "internalType": "address",
          "name": "to",
          "type": "address"
        },
        {
          "internalType": "uint256",
          "name": "tokenId",
          "type": "uint256"
        }
      ],
      "name": "safeTransferFrom",
      "outputs": [],
      "stateMutability": "nonpayable",
      "type": "function"
    },
    {
      "inputs": [
        {
          "internalType": "address",
          "name": "from",
          "type": "address"
        },
        {
          "internalType": "address",
          "name": "to",
          "type": "address"
        },
        {
          "internalType": "uint256",
          "name": "tokenId",
          "type": "uint256"
        },
        {
          "internalType": "bytes",
          "name": "_data",
          "type": "bytes"
        }
      ],
      "name": "safeTransferFrom",
      "outputs": [],
      "stateMutability": "nonpayable",
      "type": "function"
    },
    {
      "inputs": [
        {
          "internalType": "address",
          "name": "operator",
          "type": "address"
        },
        {
          "internalType": "bool",
          "name": "approved",
          "type": "bool"
        }
      ],
      "name": "setApprovalForAll",
      "outputs": [],
      "stateMutability": "nonpayable",
      "type": "function"
    },
    {
      "inputs": [
        {
          "internalType": "string",
          "name": "_baseTokenURI",
          "type": "string"
        }
      ],
      "name": "setBaseURI",
      "outputs": [],
      "stateMutability": "nonpayable",
      "type": "function"
    },
    {
      "inputs": [
        {
          "internalType": "bytes4",
          "name": "interfaceId",
          "type": "bytes4"
        }
      ],
      "name": "supportsInterface",
      "outputs": [
        {
          "internalType": "bool",
          "name": "",
          "type": "bool"
        }
      ],
      "stateMutability": "view",
      "type": "function"
    },
    {
      "inputs": [],
      "name": "symbol",
      "outputs": [
        {
          "internalType": "string",
          "name": "",
          "type": "string"
        }
      ],
      "stateMutability": "view",
      "type": "function"
    },
    {
      "inputs": [
        {
          "internalType": "uint256",
          "name": "index",
          "type": "uint256"
        }
      ],
      "name": "tokenByIndex",
      "outputs": [
        {
          "internalType": "uint256",
          "name": "",
          "type": "uint256"
        }
      ],
      "stateMutability": "view",
      "type": "function"
    },
    {
      "inputs": [
        {
          "internalType": "address",
          "name": "owner",
          "type": "address"
        },
        {
          "internalType": "uint256",
          "name": "index",
          "type": "uint256"
        }
      ],
      "name": "tokenOfOwnerByIndex",
      "outputs": [
        {
          "internalType": "uint256",
          "name": "",
          "type": "uint256"
        }
      ],
      "stateMutability": "view",
      "type": "function"
    },
    {
      "inputs": [
        {
          "internalType": "uint256",
          "name": "tokenId",
          "type": "uint256"
        }
      ],
      "name": "tokenURI",
      "outputs": [
        {
          "internalType": "string",
          "name": "",
          "type": "string"
        }
      ],
      "stateMutability": "view",
      "type": "function"
    },
    {
      "inputs": [
        {
          "internalType": "address",
          "name": "_owner",
          "type": "address"
        }
      ],
      "name": "tokensOfOwner",
      "outputs": [
        {
          "internalType": "uint256[]",
          "name": "",
          "type": "uint256[]"
        }
      ],
      "stateMutability": "view",
      "type": "function"
    },
    {
      "inputs": [],
      "name": "totalSupply",
      "outputs": [
        {
          "internalType": "uint256",
          "name": "",
          "type": "uint256"
        }
      ],
      "stateMutability": "view",
      "type": "function"
    },
    {
      "inputs": [
        {
          "internalType": "address",
          "name": "from",
          "type": "address"
        },
        {
          "internalType": "address",
          "name": "to",
          "type": "address"
        },
        {
          "internalType": "uint256",
          "name": "tokenId",
          "type": "uint256"
        }
      ],
      "name": "transferFrom",
      "outputs": [],
      "stateMutability": "nonpayable",
      "type": "function"
    },
    {
      "inputs": [
        {
          "internalType": "address",
          "name": "newOwner",
          "type": "address"
        }
      ],
      "name": "transferOwnership",
      "outputs": [],
      "stateMutability": "nonpayable",
      "type": "function"
    },
    {
      "inputs": [],
      "name": "withdraw",
      "outputs": [],
      "stateMutability": "payable",
      "type": "function"
    }
  ],
  "bytecode": "0x60806040523480156200001157600080fd5b5060405162004593380380620045938339818101604052810190620000379190620003d4565b6040518060400160405280600781526020017f7a656463617473000000000000000000000000000000000000000000000000008152506040518060400160405280600481526020017f5a434154000000000000000000000000000000000000000000000000000000008152508160009080519060200190620000bb929190620002b2565b508060019080519060200190620000d4929190620002b2565b505050620000f7620000eb6200010f60201b60201c565b6200011760201b60201c565b6200010881620001dd60201b60201c565b506200060c565b600033905090565b6000600a60009054906101000a900473ffffffffffffffffffffffffffffffffffffffff16905081600a60006101000a81548173ffffffffffffffffffffffffffffffffffffffff021916908373ffffffffffffffffffffffffffffffffffffffff1602179055508173ffffffffffffffffffffffffffffffffffffffff168173ffffffffffffffffffffffffffffffffffffffff167f8be0079c531659141344cd1fd0a4f28419497f9722a3daafe3b4186f6b6457e060405160405180910390a35050565b620001ed6200010f60201b60201c565b73ffffffffffffffffffffffffffffffffffffffff16620002136200028860201b60201c565b73ffffffffffffffffffffffffffffffffffffffff16146200026c576040517f08c379a0000000000000000000000000000000000000000000000000000000008152600401620002639062000440565b60405180910390fd5b80600c908051906020019062000284929190620002b2565b5050565b6000600a60009054906101000a900473ffffffffffffffffffffffffffffffffffffffff16905090565b828054620002c09062000508565b90600052602060002090601f016020900481019282620002e4576000855562000330565b82601f10620002ff57805160ff191683800117855562000330565b8280016001018555821562000330579182015b828111156200032f57825182559160200191906001019062000312565b5b5090506200033f919062000343565b5090565b5b808211156200035e57600081600090555060010162000344565b5090565b60006200037962000373846200048b565b62000462565b9050828152602081018484840111156200039257600080fd5b6200039f848285620004d2565b509392505050565b600082601f830112620003b957600080fd5b8151620003cb84826020860162000362565b91505092915050565b600060208284031215620003e757600080fd5b600082015167ffffffffffffffff8111156200040257600080fd5b6200041084828501620003a7565b91505092915050565b600062000428602083620004c1565b91506200043582620005e3565b602082019050919050565b600060208201905081810360008301526200045b8162000419565b9050919050565b60006200046e62000481565b90506200047c82826200053e565b919050565b6000604051905090565b600067ffffffffffffffff821115620004a957620004a8620005a3565b5b620004b482620005d2565b9050602081019050919050565b600082825260208201905092915050565b60005b83811015620004f2578082015181840152602081019050620004d5565b8381111562000502576000848401525b50505050565b600060028204905060018216806200052157607f821691505b6020821081141562000538576200053762000574565b5b50919050565b6200054982620005d2565b810181811067ffffffffffffffff821117156200056b576200056a620005a3565b5b80604052505050565b7f4e487b7100000000000000000000000000000000000000000000000000000000600052602260045260246000fd5b7f4e487b7100000000000000000000000000000000000000000000000000000000600052604160045260246000fd5b6000601f19601f8301169050919050565b7f4f776e61626c653a2063616c6c6572206973206e6f7420746865206f776e6572600082015250565b613f77806200061c6000396000f3fe6080604052600436106101815760003560e01c80636352211e116100d157806395d89b411161008a578063c87b56dd11610064578063c87b56dd14610566578063d547cfb7146105a3578063e985e9c5146105ce578063f2fde38b1461060b57610181565b806395d89b41146104e9578063a22cb46514610514578063b88d4fde1461053d57610181565b80636352211e146103c557806370a0823114610402578063715018a61461043f5780638462151c146104565780638d859f3e146104935780638da5cb5b146104be57610181565b80632f745c591161013e5780633ccfd60b116101185780633ccfd60b1461032c57806342842e0e146103365780634f6ccce71461035f57806355f804b31461039c57610181565b80632f745c59146102a857806332cb6b0c146102e55780633b4b13811461031057610181565b806301ffc9a71461018657806306fdde03146101c3578063081812fc146101ee578063095ea7b31461022b57806318160ddd1461025457806323b872dd1461027f575b600080fd5b34801561019257600080fd5b506101ad60048036038101906101a89190612bb5565b610634565b6040516101ba91906131ad565b60405180910390f35b3480156101cf57600080fd5b506101d86106ae565b6040516101e591906131c8565b60405180910390f35b3480156101fa57600080fd5b5061021560048036038101906102109190612c48565b610740565b6040516102229190613124565b60405180910390f35b34801561023757600080fd5b50610252600480360381019061024d9190612b79565b6107c5565b005b34801561026057600080fd5b506102696108dd565b60405161027691906134aa565b60405180910390f35b34801561028b57600080fd5b506102a660048036038101906102a19190612a73565b6108ea565b005b3480156102b457600080fd5b506102cf60048036038101906102ca9190612b79565b61094a565b6040516102dc91906134aa565b60405180910390f35b3480156102f157600080fd5b506102fa6109ef565b60405161030791906134aa565b60405180910390f35b61032a60048036038101906103259190612c48565b6109f5565b005b610334610ae1565b005b34801561034257600080fd5b5061035d60048036038101906103589190612a73565b610c55565b005b34801561036b57600080fd5b5061038660048036038101906103819190612c48565b610c75565b60405161039391906134aa565b60405180910390f35b3480156103a857600080fd5b506103c360048036038101906103be9190612c07565b610d0c565b005b3480156103d157600080fd5b506103ec60048036038101906103e79190612c48565b610da2565b6040516103f99190613124565b60405180910390f35b34801561040e57600080fd5b5061042960048036038101906104249190612a0e565b610e54565b60405161043691906134aa565b60405180910390f35b34801561044b57600080fd5b50610454610f0c565b005b34801561046257600080fd5b5061047d60048036038101906104789190612a0e565b610f94565b60405161048a919061318b565b60405180910390f35b34801561049f57600080fd5b506104a861108e565b6040516104b591906134aa565b60405180910390f35b3480156104ca57600080fd5b506104d3611099565b6040516104e09190613124565b60405180910390f35b3480156104f557600080fd5b506104fe6110c3565b60405161050b91906131c8565b60405180910390f35b34801561052057600080fd5b5061053b60048036038101906105369190612b3d565b611155565b005b34801561054957600080fd5b50610564600480360381019061055f9190612ac2565b61116b565b005b34801561057257600080fd5b5061058d60048036038101906105889190612c48565b6111cd565b60405161059a91906131c8565b60405180910390f35b3480156105af57600080fd5b506105b8611274565b6040516105c591906131c8565b60405180910390f35b3480156105da57600080fd5b506105f560048036038101906105f09190612a37565b611302565b60405161060291906131ad565b60405180910390f35b34801561061757600080fd5b50610632600480360381019061062d9190612a0e565b611396565b005b60007f780e9d63000000000000000000000000000000000000000000000000000000007bffffffffffffffffffffffffffffffffffffffffffffffffffffffff1916827bffffffffffffffffffffffffffffffffffffffffffffffffffffffff191614806106a757506106a68261148e565b5b9050919050565b6060600080546106bd9061379e565b80601f01602080910402602001604051908101604052809291908181526020018280546106e99061379e565b80156107365780601f1061070b57610100808354040283529160200191610736565b820191906000526020600020905b81548152906001019060200180831161071957829003601f168201915b5050505050905090565b600061074b82611570565b61078a576040517f08c379a0000000000000000000000000000000000000000000000000000000008152600401610781906133ca565b60405180910390fd5b6004600083815260200190815260200160002060009054906101000a900473ffffffffffffffffffffffffffffffffffffffff169050919050565b60006107d082610da2565b90508073ffffffffffffffffffffffffffffffffffffffff168373ffffffffffffffffffffffffffffffffffffffff161415610841576040517f08c379a00000000000000000000000000000000000000000000000000000000081526004016108389061342a565b60405180910390fd5b8073ffffffffffffffffffffffffffffffffffffffff166108606115dc565b73ffffffffffffffffffffffffffffffffffffffff16148061088f575061088e816108896115dc565b611302565b5b6108ce576040517f08c379a00000000000000000000000000000000000000000000000000000000081526004016108c59061332a565b60405180910390fd5b6108d883836115e4565b505050565b6000600880549050905090565b6108fb6108f56115dc565b8261169d565b61093a576040517f08c379a00000000000000000000000000000000000000000000000000000000081526004016109319061344a565b60405180910390fd5b61094583838361177b565b505050565b600061095583610e54565b8210610996576040517f08c379a000000000000000000000000000000000000000000000000000000000815260040161098d906131ea565b60405180910390fd5b600660008473ffffffffffffffffffffffffffffffffffffffff1673ffffffffffffffffffffffffffffffffffffffff168152602001908152602001600020600083815260200190815260200160002054905092915050565b6101a481565b6000610a01600b6119e2565b90506101a4610a1983836119f090919063ffffffff16565b1115610a5a576040517f08c379a0000000000000000000000000000000000000000000000000000000008152600401610a519061322a565b60405180910390fd5b610a7482662386f26fc10000611a0690919063ffffffff16565b341015610ab6576040517f08c379a0000000000000000000000000000000000000000000000000000000008152600401610aad906132aa565b60405180910390fd5b60005b82811015610adc57610ac9611a1c565b8080610ad490613801565b915050610ab9565b505050565b610ae96115dc565b73ffffffffffffffffffffffffffffffffffffffff16610b07611099565b73ffffffffffffffffffffffffffffffffffffffff1614610b5d576040517f08c379a0000000000000000000000000000000000000000000000000000000008152600401610b54906133ea565b60405180910390fd5b600047905060008111610ba5576040517f08c379a0000000000000000000000000000000000000000000000000000000008152600401610b9c906133aa565b60405180910390fd5b60003373ffffffffffffffffffffffffffffffffffffffff1682604051610bcb9061310f565b60006040518083038185875af1925050503d8060008114610c08576040519150601f19603f3d011682016040523d82523d6000602084013e610c0d565b606091505b5050905080610c51576040517f08c379a0000000000000000000000000000000000000000000000000000000008152600401610c489061348a565b60405180910390fd5b5050565b610c708383836040518060200160405280600081525061116b565b505050565b6000610c7f6108dd565b8210610cc0576040517f08c379a0000000000000000000000000000000000000000000000000000000008152600401610cb79061346a565b60405180910390fd5b60088281548110610cfa577f4e487b7100000000000000000000000000000000000000000000000000000000600052603260045260246000fd5b90600052602060002001549050919050565b610d146115dc565b73ffffffffffffffffffffffffffffffffffffffff16610d32611099565b73ffffffffffffffffffffffffffffffffffffffff1614610d88576040517f08c379a0000000000000000000000000000000000000000000000000000000008152600401610d7f906133ea565b60405180910390fd5b80600c9080519060200190610d9e929190612832565b5050565b6000806002600084815260200190815260200160002060009054906101000a900473ffffffffffffffffffffffffffffffffffffffff169050600073ffffffffffffffffffffffffffffffffffffffff168173ffffffffffffffffffffffffffffffffffffffff161415610e4b576040517f08c379a0000000000000000000000000000000000000000000000000000000008152600401610e429061336a565b60405180910390fd5b80915050919050565b60008073ffffffffffffffffffffffffffffffffffffffff168273ffffffffffffffffffffffffffffffffffffffff161415610ec5576040517f08c379a0000000000000000000000000000000000000000000000000000000008152600401610ebc9061334a565b60405180910390fd5b600360008373ffffffffffffffffffffffffffffffffffffffff1673ffffffffffffffffffffffffffffffffffffffff168152602001908152602001600020549050919050565b610f146115dc565b73ffffffffffffffffffffffffffffffffffffffff16610f32611099565b73ffffffffffffffffffffffffffffffffffffffff1614610f88576040517f08c379a0000000000000000000000000000000000000000000000000000000008152600401610f7f906133ea565b60405180910390fd5b610f926000611a41565b565b60606000610fa183610e54565b905060008167ffffffffffffffff811115610fe5577f4e487b7100000000000000000000000000000000000000000000000000000000600052604160045260246000fd5b6040519080825280602002602001820160405280156110135781602001602082028036833780820191505090505b50905060005b828110156110835761102b858261094a565b828281518110611064577f4e487b7100000000000000000000000000000000000000000000000000000000600052603260045260246000fd5b602002602001018181525050808061107b90613801565b915050611019565b508092505050919050565b662386f26fc1000081565b6000600a60009054906101000a900473ffffffffffffffffffffffffffffffffffffffff16905090565b6060600180546110d29061379e565b80601f01602080910402602001604051908101604052809291908181526020018280546110fe9061379e565b801561114b5780601f106111205761010080835404028352916020019161114b565b820191906000526020600020905b81548152906001019060200180831161112e57829003601f168201915b5050505050905090565b6111676111606115dc565b8383611b07565b5050565b61117c6111766115dc565b8361169d565b6111bb576040517f08c379a00000000000000000000000000000000000000000000000000000000081526004016111b29061344a565b60405180910390fd5b6111c784848484611c74565b50505050565b60606111d882611570565b611217576040517f08c379a000000000000000000000000000000000000000000000000000000000815260040161120e9061340a565b60405180910390fd5b6000611221611cd0565b90506000815111611241576040518060200160405280600081525061126c565b8061124b84611d62565b60405160200161125c9291906130eb565b6040516020818303038152906040525b915050919050565b600c80546112819061379e565b80601f01602080910402602001604051908101604052809291908181526020018280546112ad9061379e565b80156112fa5780601f106112cf576101008083540402835291602001916112fa565b820191906000526020600020905b8154815290600101906020018083116112dd57829003601f168201915b505050505081565b6000600560008473ffffffffffffffffffffffffffffffffffffffff1673ffffffffffffffffffffffffffffffffffffffff16815260200190815260200160002060008373ffffffffffffffffffffffffffffffffffffffff1673ffffffffffffffffffffffffffffffffffffffff16815260200190815260200160002060009054906101000a900460ff16905092915050565b61139e6115dc565b73ffffffffffffffffffffffffffffffffffffffff166113bc611099565b73ffffffffffffffffffffffffffffffffffffffff1614611412576040517f08c379a0000000000000000000000000000000000000000000000000000000008152600401611409906133ea565b60405180910390fd5b600073ffffffffffffffffffffffffffffffffffffffff168173ffffffffffffffffffffffffffffffffffffffff161415611482576040517f08c379a00000000000000000000000000000000000000000000000000000000081526004016114799061324a565b60405180910390fd5b61148b81611a41565b50565b60007f80ac58cd000000000000000000000000000000000000000000000000000000007bffffffffffffffffffffffffffffffffffffffffffffffffffffffff1916827bffffffffffffffffffffffffffffffffffffffffffffffffffffffff1916148061155957507f5b5e139f000000000000000000000000000000000000000000000000000000007bffffffffffffffffffffffffffffffffffffffffffffffffffffffff1916827bffffffffffffffffffffffffffffffffffffffffffffffffffffffff1916145b80611569575061156882611f0f565b5b9050919050565b60008073ffffffffffffffffffffffffffffffffffffffff166002600084815260200190815260200160002060009054906101000a900473ffffffffffffffffffffffffffffffffffffffff1673ffffffffffffffffffffffffffffffffffffffff1614159050919050565b600033905090565b816004600083815260200190815260200160002060006101000a81548173ffffffffffffffffffffffffffffffffffffffff021916908373ffffffffffffffffffffffffffffffffffffffff160217905550808273ffffffffffffffffffffffffffffffffffffffff1661165783610da2565b73ffffffffffffffffffffffffffffffffffffffff167f8c5be1e5ebec7d5bd14f71427d1e84f3dd0314c0f7b2291e5b200ac8c7c3b92560405160405180910390a45050565b60006116a882611570565b6116e7576040517f08c379a00000000000000000000000000000000000000000000000000000000081526004016116de9061330a565b60405180910390fd5b60006116f283610da2565b90508073ffffffffffffffffffffffffffffffffffffffff168473ffffffffffffffffffffffffffffffffffffffff16148061176157508373ffffffffffffffffffffffffffffffffffffffff1661174984610740565b73ffffffffffffffffffffffffffffffffffffffff16145b8061177257506117718185611302565b5b91505092915050565b8273ffffffffffffffffffffffffffffffffffffffff1661179b82610da2565b73ffffffffffffffffffffffffffffffffffffffff16146117f1576040517f08c379a00000000000000000000000000000000000000000000000000000000081526004016117e89061326a565b60405180910390fd5b600073ffffffffffffffffffffffffffffffffffffffff168273ffffffffffffffffffffffffffffffffffffffff161415611861576040517f08c379a0000000000000000000000000000000000000000000000000000000008152600401611858906132ca565b60405180910390fd5b61186c838383611f79565b6118776000826115e4565b6001600360008573ffffffffffffffffffffffffffffffffffffffff1673ffffffffffffffffffffffffffffffffffffffff16815260200190815260200160002060008282546118c791906136b4565b925050819055506001600360008473ffffffffffffffffffffffffffffffffffffffff1673ffffffffffffffffffffffffffffffffffffffff168152602001908152602001600020600082825461191e91906135d3565b92505081905550816002600083815260200190815260200160002060006101000a81548173ffffffffffffffffffffffffffffffffffffffff021916908373ffffffffffffffffffffffffffffffffffffffff160217905550808273ffffffffffffffffffffffffffffffffffffffff168473ffffffffffffffffffffffffffffffffffffffff167fddf252ad1be2c89b69c2b068fc378daa952ba7f163c4a11628f55a4df523b3ef60405160405180910390a46119dd83838361208d565b505050565b600081600001549050919050565b600081836119fe91906135d3565b905092915050565b60008183611a14919061365a565b905092915050565b6000611a28600b6119e2565b9050611a343382612092565b611a3e600b6120b0565b50565b6000600a60009054906101000a900473ffffffffffffffffffffffffffffffffffffffff16905081600a60006101000a81548173ffffffffffffffffffffffffffffffffffffffff021916908373ffffffffffffffffffffffffffffffffffffffff1602179055508173ffffffffffffffffffffffffffffffffffffffff168173ffffffffffffffffffffffffffffffffffffffff167f8be0079c531659141344cd1fd0a4f28419497f9722a3daafe3b4186f6b6457e060405160405180910390a35050565b8173ffffffffffffffffffffffffffffffffffffffff168373ffffffffffffffffffffffffffffffffffffffff161415611b76576040517f08c379a0000000000000000000000000000000000000000000000000000000008152600401611b6d906132ea565b60405180910390fd5b80600560008573ffffffffffffffffffffffffffffffffffffffff1673ffffffffffffffffffffffffffffffffffffffff16815260200190815260200160002060008473ffffffffffffffffffffffffffffffffffffffff1673ffffffffffffffffffffffffffffffffffffffff16815260200190815260200160002060006101000a81548160ff0219169083151502179055508173ffffffffffffffffffffffffffffffffffffffff168373ffffffffffffffffffffffffffffffffffffffff167f17307eab39ab6107e8899845ad3d59bd9653f200f220920489ca2b5937696c3183604051611c6791906131ad565b60405180910390a3505050565b611c7f84848461177b565b611c8b848484846120c6565b611cca576040517f08c379a0000000000000000000000000000000000000000000000000000000008152600401611cc19061320a565b60405180910390fd5b50505050565b6060600c8054611cdf9061379e565b80601f0160208091040260200160405190810160405280929190818152602001828054611d0b9061379e565b8015611d585780601f10611d2d57610100808354040283529160200191611d58565b820191906000526020600020905b815481529060010190602001808311611d3b57829003601f168201915b5050505050905090565b60606000821415611daa576040518060400160405280600181526020017f30000000000000000000000000000000000000000000000000000000000000008152509050611f0a565b600082905060005b60008214611ddc578080611dc590613801565b915050600a82611dd59190613629565b9150611db2565b60008167ffffffffffffffff811115611e1e577f4e487b7100000000000000000000000000000000000000000000000000000000600052604160045260246000fd5b6040519080825280601f01601f191660200182016040528015611e505781602001600182028036833780820191505090505b5090505b60008514611f0357600182611e6991906136b4565b9150600a85611e78919061384a565b6030611e8491906135d3565b60f81b818381518110611ec0577f4e487b7100000000000000000000000000000000000000000000000000000000600052603260045260246000fd5b60200101907effffffffffffffffffffffffffffffffffffffffffffffffffffffffffffff1916908160001a905350600a85611efc9190613629565b9450611e54565b8093505050505b919050565b60007f01ffc9a7000000000000000000000000000000000000000000000000000000007bffffffffffffffffffffffffffffffffffffffffffffffffffffffff1916827bffffffffffffffffffffffffffffffffffffffffffffffffffffffff1916149050919050565b611f8483838361225d565b600073ffffffffffffffffffffffffffffffffffffffff168373ffffffffffffffffffffffffffffffffffffffff161415611fc757611fc281612262565b612006565b8173ffffffffffffffffffffffffffffffffffffffff168373ffffffffffffffffffffffffffffffffffffffff16146120055761200483826122ab565b5b5b600073ffffffffffffffffffffffffffffffffffffffff168273ffffffffffffffffffffffffffffffffffffffff1614156120495761204481612418565b612088565b8273ffffffffffffffffffffffffffffffffffffffff168273ffffffffffffffffffffffffffffffffffffffff161461208757612086828261255b565b5b5b505050565b505050565b6120ac8282604051806020016040528060008152506125da565b5050565b6001816000016000828254019250508190555050565b60006120e78473ffffffffffffffffffffffffffffffffffffffff16612635565b15612250578373ffffffffffffffffffffffffffffffffffffffff1663150b7a026121106115dc565b8786866040518563ffffffff1660e01b8152600401612132949392919061313f565b602060405180830381600087803b15801561214c57600080fd5b505af192505050801561217d57506040513d601f19601f8201168201806040525081019061217a9190612bde565b60015b612200573d80600081146121ad576040519150601f19603f3d011682016040523d82523d6000602084013e6121b2565b606091505b506000815114156121f8576040517f08c379a00000000000000000000000000000000000000000000000000000000081526004016121ef9061320a565b60405180910390fd5b805181602001fd5b63150b7a0260e01b7bffffffffffffffffffffffffffffffffffffffffffffffffffffffff1916817bffffffffffffffffffffffffffffffffffffffffffffffffffffffff191614915050612255565b600190505b949350505050565b505050565b6008805490506009600083815260200190815260200160002081905550600881908060018154018082558091505060019003906000526020600020016000909190919091505550565b600060016122b884610e54565b6122c291906136b4565b90506000600760008481526020019081526020016000205490508181146123a7576000600660008673ffffffffffffffffffffffffffffffffffffffff1673ffffffffffffffffffffffffffffffffffffffff168152602001908152602001600020600084815260200190815260200160002054905080600660008773ffffffffffffffffffffffffffffffffffffffff1673ffffffffffffffffffffffffffffffffffffffff168152602001908152602001600020600084815260200190815260200160002081905550816007600083815260200190815260200160002081905550505b6007600084815260200190815260200160002060009055600660008573ffffffffffffffffffffffffffffffffffffffff1673ffffffffffffffffffffffffffffffffffffffff16815260200190815260200160002060008381526020019081526020016000206000905550505050565b6000600160088054905061242c91906136b4565b9050600060096000848152602001908152602001600020549050600060088381548110612482577f4e487b7100000000000000000000000000000000000000000000000000000000600052603260045260246000fd5b9060005260206000200154905080600883815481106124ca577f4e487b7100000000000000000000000000000000000000000000000000000000600052603260045260246000fd5b90600052602060002001819055508160096000838152602001908152602001600020819055506009600085815260200190815260200160002060009055600880548061253f577f4e487b7100000000000000000000000000000000000000000000000000000000600052603160045260246000fd5b6001900381819060005260206000200160009055905550505050565b600061256683610e54565b905081600660008573ffffffffffffffffffffffffffffffffffffffff1673ffffffffffffffffffffffffffffffffffffffff168152602001908152602001600020600083815260200190815260200160002081905550806007600084815260200190815260200160002081905550505050565b6125e48383612658565b6125f160008484846120c6565b612630576040517f08c379a00000000000000000000000000000000000000000000000000000000081526004016126279061320a565b60405180910390fd5b505050565b6000808273ffffffffffffffffffffffffffffffffffffffff163b119050919050565b600073ffffffffffffffffffffffffffffffffffffffff168273ffffffffffffffffffffffffffffffffffffffff1614156126c8576040517f08c379a00000000000000000000000000000000000000000000000000000000081526004016126bf9061338a565b60405180910390fd5b6126d181611570565b15612711576040517f08c379a00000000000000000000000000000000000000000000000000000000081526004016127089061328a565b60405180910390fd5b61271d60008383611f79565b6001600360008473ffffffffffffffffffffffffffffffffffffffff1673ffffffffffffffffffffffffffffffffffffffff168152602001908152602001600020600082825461276d91906135d3565b92505081905550816002600083815260200190815260200160002060006101000a81548173ffffffffffffffffffffffffffffffffffffffff021916908373ffffffffffffffffffffffffffffffffffffffff160217905550808273ffffffffffffffffffffffffffffffffffffffff16600073ffffffffffffffffffffffffffffffffffffffff167fddf252ad1be2c89b69c2b068fc378daa952ba7f163c4a11628f55a4df523b3ef60405160405180910390a461282e6000838361208d565b5050565b82805461283e9061379e565b90600052602060002090601f01602090048101928261286057600085556128a7565b82601f1061287957805160ff19168380011785556128a7565b828001600101855582156128a7579182015b828111156128a657825182559160200191906001019061288b565b5b5090506128b491906128b8565b5090565b5b808211156128d15760008160009055506001016128b9565b5090565b60006128e86128e3846134ea565b6134c5565b90508281526020810184848401111561290057600080fd5b61290b84828561375c565b509392505050565b60006129266129218461351b565b6134c5565b90508281526020810184848401111561293e57600080fd5b61294984828561375c565b509392505050565b60008135905061296081613ee5565b92915050565b60008135905061297581613efc565b92915050565b60008135905061298a81613f13565b92915050565b60008151905061299f81613f13565b92915050565b600082601f8301126129b657600080fd5b81356129c68482602086016128d5565b91505092915050565b600082601f8301126129e057600080fd5b81356129f0848260208601612913565b91505092915050565b600081359050612a0881613f2a565b92915050565b600060208284031215612a2057600080fd5b6000612a2e84828501612951565b91505092915050565b60008060408385031215612a4a57600080fd5b6000612a5885828601612951565b9250506020612a6985828601612951565b9150509250929050565b600080600060608486031215612a8857600080fd5b6000612a9686828701612951565b9350506020612aa786828701612951565b9250506040612ab8868287016129f9565b9150509250925092565b60008060008060808587031215612ad857600080fd5b6000612ae687828801612951565b9450506020612af787828801612951565b9350506040612b08878288016129f9565b925050606085013567ffffffffffffffff811115612b2557600080fd5b612b31878288016129a5565b91505092959194509250565b60008060408385031215612b5057600080fd5b6000612b5e85828601612951565b9250506020612b6f85828601612966565b9150509250929050565b60008060408385031215612b8c57600080fd5b6000612b9a85828601612951565b9250506020612bab858286016129f9565b9150509250929050565b600060208284031215612bc757600080fd5b6000612bd58482850161297b565b91505092915050565b600060208284031215612bf057600080fd5b6000612bfe84828501612990565b91505092915050565b600060208284031215612c1957600080fd5b600082013567ffffffffffffffff811115612c3357600080fd5b612c3f848285016129cf565b91505092915050565b600060208284031215612c5a57600080fd5b6000612c68848285016129f9565b91505092915050565b6000612c7d83836130cd565b60208301905092915050565b612c92816136e8565b82525050565b6000612ca38261355c565b612cad818561358a565b9350612cb88361354c565b8060005b83811015612ce9578151612cd08882612c71565b9750612cdb8361357d565b925050600181019050612cbc565b5085935050505092915050565b612cff816136fa565b82525050565b6000612d1082613567565b612d1a818561359b565b9350612d2a81856020860161376b565b612d3381613937565b840191505092915050565b6000612d4982613572565b612d5381856135b7565b9350612d6381856020860161376b565b612d6c81613937565b840191505092915050565b6000612d8282613572565b612d8c81856135c8565b9350612d9c81856020860161376b565b80840191505092915050565b6000612db5602b836135b7565b9150612dc082613948565b604082019050919050565b6000612dd86032836135b7565b9150612de382613997565b604082019050919050565b6000612dfb6006836135b7565b9150612e06826139e6565b602082019050919050565b6000612e1e6026836135b7565b9150612e2982613a0f565b604082019050919050565b6000612e416025836135b7565b9150612e4c82613a5e565b604082019050919050565b6000612e64601c836135b7565b9150612e6f82613aad565b602082019050919050565b6000612e87600b836135b7565b9150612e9282613ad6565b602082019050919050565b6000612eaa6024836135b7565b9150612eb582613aff565b604082019050919050565b6000612ecd6019836135b7565b9150612ed882613b4e565b602082019050919050565b6000612ef0602c836135b7565b9150612efb82613b77565b604082019050919050565b6000612f136038836135b7565b9150612f1e82613bc6565b604082019050919050565b6000612f36602a836135b7565b9150612f4182613c15565b604082019050919050565b6000612f596029836135b7565b9150612f6482613c64565b604082019050919050565b6000612f7c6020836135b7565b9150612f8782613cb3565b602082019050919050565b6000612f9f6009836135b7565b9150612faa82613cdc565b602082019050919050565b6000612fc2602c836135b7565b9150612fcd82613d05565b604082019050919050565b6000612fe56020836135b7565b9150612ff082613d54565b602082019050919050565b6000613008602f836135b7565b915061301382613d7d565b604082019050919050565b600061302b6021836135b7565b915061303682613dcc565b604082019050919050565b600061304e6000836135ac565b915061305982613e1b565b600082019050919050565b60006130716031836135b7565b915061307c82613e1e565b604082019050919050565b6000613094602c836135b7565b915061309f82613e6d565b604082019050919050565b60006130b76009836135b7565b91506130c282613ebc565b602082019050919050565b6130d681613752565b82525050565b6130e581613752565b82525050565b60006130f78285612d77565b91506131038284612d77565b91508190509392505050565b600061311a82613041565b9150819050919050565b60006020820190506131396000830184612c89565b92915050565b60006080820190506131546000830187612c89565b6131616020830186612c89565b61316e60408301856130dc565b81810360608301526131808184612d05565b905095945050505050565b600060208201905081810360008301526131a58184612c98565b905092915050565b60006020820190506131c26000830184612cf6565b92915050565b600060208201905081810360008301526131e28184612d3e565b905092915050565b6000602082019050818103600083015261320381612da8565b9050919050565b6000602082019050818103600083015261322381612dcb565b9050919050565b6000602082019050818103600083015261324381612dee565b9050919050565b6000602082019050818103600083015261326381612e11565b9050919050565b6000602082019050818103600083015261328381612e34565b9050919050565b600060208201905081810360008301526132a381612e57565b9050919050565b600060208201905081810360008301526132c381612e7a565b9050919050565b600060208201905081810360008301526132e381612e9d565b9050919050565b6000602082019050818103600083015261330381612ec0565b9050919050565b6000602082019050818103600083015261332381612ee3565b9050919050565b6000602082019050818103600083015261334381612f06565b9050919050565b6000602082019050818103600083015261336381612f29565b9050919050565b6000602082019050818103600083015261338381612f4c565b9050919050565b600060208201905081810360008301526133a381612f6f565b9050919050565b600060208201905081810360008301526133c381612f92565b9050919050565b600060208201905081810360008301526133e381612fb5565b9050919050565b6000602082019050818103600083015261340381612fd8565b9050919050565b6000602082019050818103600083015261342381612ffb565b9050919050565b600060208201905081810360008301526134438161301e565b9050919050565b6000602082019050818103600083015261346381613064565b9050919050565b6000602082019050818103600083015261348381613087565b9050919050565b600060208201905081810360008301526134a3816130aa565b9050919050565b60006020820190506134bf60008301846130dc565b92915050565b60006134cf6134e0565b90506134db82826137d0565b919050565b6000604051905090565b600067ffffffffffffffff82111561350557613504613908565b5b61350e82613937565b9050602081019050919050565b600067ffffffffffffffff82111561353657613535613908565b5b61353f82613937565b9050602081019050919050565b6000819050602082019050919050565b600081519050919050565b600081519050919050565b600081519050919050565b6000602082019050919050565b600082825260208201905092915050565b600082825260208201905092915050565b600081905092915050565b600082825260208201905092915050565b600081905092915050565b60006135de82613752565b91506135e983613752565b9250827fffffffffffffffffffffffffffffffffffffffffffffffffffffffffffffffff0382111561361e5761361d61387b565b5b828201905092915050565b600061363482613752565b915061363f83613752565b92508261364f5761364e6138aa565b5b828204905092915050565b600061366582613752565b915061367083613752565b9250817fffffffffffffffffffffffffffffffffffffffffffffffffffffffffffffffff04831182151516156136a9576136a861387b565b5b828202905092915050565b60006136bf82613752565b91506136ca83613752565b9250828210156136dd576136dc61387b565b5b828203905092915050565b60006136f382613732565b9050919050565b60008115159050919050565b60007fffffffff0000000000000000000000000000000000000000000000000000000082169050919050565b600073ffffffffffffffffffffffffffffffffffffffff82169050919050565b6000819050919050565b82818337600083830152505050565b60005b8381101561378957808201518184015260208101905061376e565b83811115613798576000848401525b50505050565b600060028204905060018216806137b657607f821691505b602082108114156137ca576137c96138d9565b5b50919050565b6137d982613937565b810181811067ffffffffffffffff821117156137f8576137f7613908565b5b80604052505050565b600061380c82613752565b91507fffffffffffffffffffffffffffffffffffffffffffffffffffffffffffffffff82141561383f5761383e61387b565b5b600182019050919050565b600061385582613752565b915061386083613752565b9250826138705761386f6138aa565b5b828206905092915050565b7f4e487b7100000000000000000000000000000000000000000000000000000000600052601160045260246000fd5b7f4e487b7100000000000000000000000000000000000000000000000000000000600052601260045260246000fd5b7f4e487b7100000000000000000000000000000000000000000000000000000000600052602260045260246000fd5b7f4e487b7100000000000000000000000000000000000000000000000000000000600052604160045260246000fd5b6000601f19601f8301169050919050565b7f455243373231456e756d657261626c653a206f776e657220696e646578206f7560008201527f74206f6620626f756e6473000000000000000000000000000000000000000000602082015250565b7f4552433732313a207472616e7366657220746f206e6f6e20455243373231526560008201527f63656976657220696d706c656d656e7465720000000000000000000000000000602082015250565b7f30206c6566740000000000000000000000000000000000000000000000000000600082015250565b7f4f776e61626c653a206e6577206f776e657220697320746865207a65726f206160008201527f6464726573730000000000000000000000000000000000000000000000000000602082015250565b7f4552433732313a207472616e736665722066726f6d20696e636f72726563742060008201527f6f776e6572000000000000000000000000000000000000000000000000000000602082015250565b7f4552433732313a20746f6b656e20616c7265616479206d696e74656400000000600082015250565b7f4e656564206d6f72652024000000000000000000000000000000000000000000600082015250565b7f4552433732313a207472616e7366657220746f20746865207a65726f2061646460008201527f7265737300000000000000000000000000000000000000000000000000000000602082015250565b7f4552433732313a20617070726f766520746f2063616c6c657200000000000000600082015250565b7f4552433732313a206f70657261746f7220717565727920666f72206e6f6e657860008201527f697374656e7420746f6b656e0000000000000000000000000000000000000000602082015250565b7f4552433732313a20617070726f76652063616c6c6572206973206e6f74206f7760008201527f6e6572206e6f7220617070726f76656420666f7220616c6c0000000000000000602082015250565b7f4552433732313a2062616c616e636520717565727920666f7220746865207a6560008201527f726f206164647265737300000000000000000000000000000000000000000000602082015250565b7f4552433732313a206f776e657220717565727920666f72206e6f6e657869737460008201527f656e7420746f6b656e0000000000000000000000000000000000000000000000602082015250565b7f4552433732313a206d696e7420746f20746865207a65726f2061646472657373600082015250565b7f4e6f2024206c6566740000000000000000000000000000000000000000000000600082015250565b7f4552433732313a20617070726f76656420717565727920666f72206e6f6e657860008201527f697374656e7420746f6b656e0000000000000000000000000000000000000000602082015250565b7f4f776e61626c653a2063616c6c6572206973206e6f7420746865206f776e6572600082015250565b7f4552433732314d657461646174613a2055524920717565727920666f72206e6f60008201527f6e6578697374656e7420746f6b656e0000000000000000000000000000000000602082015250565b7f4552433732313a20617070726f76616c20746f2063757272656e74206f776e6560008201527f7200000000000000000000000000000000000000000000000000000000000000602082015250565b50565b7f4552433732313a207472616e736665722063616c6c6572206973206e6f74206f60008201527f776e6572206e6f7220617070726f766564000000000000000000000000000000602082015250565b7f455243373231456e756d657261626c653a20676c6f62616c20696e646578206f60008201527f7574206f6620626f756e64730000000000000000000000000000000000000000602082015250565b7f54206661696c65642e0000000000000000000000000000000000000000000000600082015250565b613eee816136e8565b8114613ef957600080fd5b50565b613f05816136fa565b8114613f1057600080fd5b50565b613f1c81613706565b8114613f2757600080fd5b50565b613f3381613752565b8114613f3e57600080fd5b5056fea2646970667358221220b6e5a222131641ca2c5c3cf44387c38e0d3e2aba16ab6be9b56b8af34f35f52964736f6c63430008040033",
  "linkReferences": {},
  "deployedLinkReferences": {}
}